:020000040800F2
:10000000E007002091010008E51B0008431B0008E1
:1000100000000000000000000000000000000000E0
:10002000000000000000000000000000E91B0008C4
:100030000000000000000000E71B0008EB1B0008A8
:10004000A3010008A3010008A3010008A301000800
:10005000A3010008A3010008A3010008A3010008F0
:10006000A3010008A3010008A3010008A3010008E0
:10007000A3010008A3010008A3010008A3010008D0
:10008000A3010008A3010008A3010008000000006C
:10009000A3010008A3010008A3010008A3010008B0
:1000A000A3010008A3010008A3010008052400081B
:1000B00015240008A3010008A3010008A3010008FB
:1000C00000F002F800F054F812A030C808382418E4
:1000D0002D18AC4201D100F04BF80FCCA246AB4634
:1000E0000CA730CF2D1B083F3F197C427F1E544484
:1000F0002D090426F441641EAC4201D300F038F807
:100100000126334200D0FB1A3343984754465D46DC
:10011000DFE70000042B0000242B0000103A02D37C
:1001200078C878C1FAD8520701D330C830C101D598
:1001300004680C6070470000704700000023002432
:1001400000250026103A01D378C1FBD8520700D30E
:1001500030C100D50B60704710B5642902D100F0A2
:10016000BBF810BD002010BD1FB51FBD10B510BDE0
:1001700000F099F91146FFF7F7FF02F0A1FA00F03D
:10018000B1F903B4FFF7F2FF03BC00F0B7F90000C8
:100190000748804707480047FEE7FEE7FEE7FEE71F
:1001A000FEE7FEE704480549054A064B7047000094
:1001B000F31B0008C1000008E0010020E007002058
:1001C000E0030020E0030020FEB5044610460D4683
:1001D000184373D0A6468C460020A41A01469D41C0
:1001E00067D36646002701243D46B61A9D4102D3D7
:1001F00013463A462124654676462F04360C3E4384
:100200002D0CB61A9D4104D3150C1B042B4312046C
:100210001034654676462F06360A3E432D0AB61A36
:100220009D4104D3150E1B022B4312020834654670
:1002300076462F0736093E432D09B61A9D4104D351
:10024000150F1B012B431201241D65467646AF078F
:10025000B6083E43AD08B61A9D4104D3950F9B00E6
:100260002B439200A41C65467646EF0776083E4372
:100270006D08B61A9D411AD392185B41641C16E0B2
:100280000018764665464941B71A9D410191009094
:1002900009D36046B11A98418E4684460098019968
:1002A0000025401C6941DD0752082A435B08641E93
:1002B000E6D57246634603B0F0BDFFE7204628430B
:1002C00007D00020C0430146C046C04622462B4608
:1002D000F1E700200146F7E7F7B50025752910681A
:1002E000009914A611D0C046C046002802DA404248
:1002F00011A608E0009909688A0701D50FA602E057
:10030000490704D50EA6012501E0C046C046009F5E
:100310000024243704E000F0B2F830313955641C71
:100320000028F8D12B4632462146009800F04FF8BD
:10033000FEBD0000000000002D0000002B000000AA
:100340002000000030B5441C03E00178401C002967
:100350000DD08107F9D10B4BDD0104C8D11A9143AF
:100360002940FAD0001B0A0603D0C01E30BD001B76
:1003700030BD0A0401D0801E30BD0902FCD0401EF1
:1003800030BD00000101010101E004C0091F042982
:10039000FBD28B0701D50280801CC90700D00270F8
:1003A000704700290BD0C30702D00270401C491EC1
:1003B000022904D3830702D50280801C891EE3E74B
:1003C0000022EEE70022DFE7704770477047FFB575
:1003D00004460D4681B0243000902168880604D57B
:1003E0001022E0699143216000E00120A84201DD74
:1003F000471B00E000270498A1697A191018081A11
:10040000A0612078C00602D42046C046C04600261F
:1004100008E003986268A168805D9047206A401CEC
:10042000761C206204988642F3DB2078C0060AD549
:100430002046C046C04606E06268A168302090476A
:10044000206A401C206238467F1E0028F4DC07E04A
:1004500000986268A168405D9047206A401C206255
:1004600028466D1E0028F3DC2046C046C046207892
:10047000000602D5022005B0F0BD0120FBE70146D1
:100480008008081A02091018020A1018020C101825
:10049000C008820012185200891A01E0401C0A3973
:1004A0000A29FBD27047754600F024F8AE460500D5
:1004B00069465346C008C000854618B020B5FFF70E
:1004C00071FE60BCB64600260027C0C5C0C5C0C5C9
:1004D000C0C5C0C5C0C5C0C5C0C5403D490849006C
:1004E0008D46704710B50446C046C0462046FFF70B
:1004F00048FE10BD00487047100000200149182038
:10050000ABBEFEE7260002007047EFF3108072B624
:10051000FEE710B5014624314A78022A14D1026858
:1005200013680E24A343136013680124A3431360CC
:10053000026C406C1C2303402046984050604C7075
:10054000002000220A7010BD0422C2630120002294
:100550000A7010BDB0B5014624314A78022A18D17C
:10056000026813680E24A343136013680125AB438C
:100570001360026C436C1C241C402B46A340536048
:1005800000240C704D70816B002900D088472046F4
:10059000B0BD0421C1630120B0BD0000B0B5044668
:1005A00000F0D8F80546601C02D08A48007804198B
:1005B00000F0D0F8401BA042FAD3B0BDF0B58AB02D
:1005C00007900B68002B00D1B3E00E465A480799FC
:1005D000814201D0062000E005200B210907079A7F
:1005E00052180A21CA410192052A00D301900798A6
:1005F00020300090002215461746029619460BE05F
:1006000021434E4801607F1C31680846F840121DA6
:10061000AD1C002800D18CE001231846B8400140F1
:10062000F1D0059306920391324603263146A94044
:100630000495CD4351680C463440631E012B089548
:10064000099110D807998B682B40D668049DAE405D
:100650001E438E60099AD306DB0FBB404E6886436B
:100660001E434E6006E0032C049D03D13446029ED7
:10067000069A1DE00799C868089A1040029EB36860
:10068000AB400343CB60022C069A11D11C201040D2
:100690000F218140FB089B00009AD4588C4331699C
:1006A00081402143D150069A706803240990044088
:1006B000AC4007990868089B1840204308600998D7
:1006C0008003800F059B9ED0494908681843086045
:1006D0000C2010400F21814003233C469C43184BC3
:1006E000E3588B4301998140194315482150134821
:1006F00081687068C30202D5039C214301E0039C1A
:10070000A1430E4B9960D968830201D5214300E0D3
:10071000A1430A4BD9605968830301D5214300E006
:10072000A143064B59601968C00300D568E7A1438F
:1007300067E70AB0F0BDC046001C0050000401404D
:1007400008000140002A02D0182281507047282258
:1007500081507047054800687047C0461D480078C2
:1007600002490A68101808607047C046DC01002082
:1007700010B50848016840220A4302600024204660
:1007800000F00AF8002801D0012010BD00F026F882
:10079000204610BD0020024070B504467D20C000F8
:1007A0000C4E317802F022F901460B48006802F045
:1007B0001DF900F07FFD0125032C08D8002806D183
:1007C0000025E84321462A4600F020F874602846B8
:1007D00070BDC046000000200800002004480168E9
:1007E000012211430160110742680A4342607047C9
:1007F00034100240002805D41F2108400121814007
:10080000014801607047C04600E100E0002805D4BF
:100810000322034693430A4A9A1803E00C2202403B
:10082000064BD2188007C00E8901C9B28140FF2350
:1008300083401068984308431060704714ED00E04F
:1008400000E400E0F0B589B0066801252F02EA0255
:1008500011462031874B0E427CD005920890290723
:10086000143B18680840049002D1186808431860C7
:1008700001930291804C2068384211D1206838439E
:100880002060FFF767FF06462068384208D1FFF76F
:1008900061FF801B6428F7D90325284609B0F0BD05
:1008A0000326340573484C38069001682140089BA4
:1008B00058680246039422400096340491420AD1BB
:1008C00002462240A242069E0DD19A68039B1A401E
:1008D000914205D107E001462140A142069E02D186
:1008E00031688903D9D4634B59680794214021D0DA
:1008F000079A1040814203D00898007880060AD4F5
:1009000008988068079A1040814213D008980068C0
:10091000059908420ED05868E9045A680A435A609B
:100920005A688A435A600146079A9143596038428F
:1009300000D08CE00898066805990E42079C59D1B2
:10094000B1066DD40499002904D1019C2168029A52
:1009500091432160F1070DD1B10713D4710719D468
:10096000310720D43E4227D171062ED4002531060E
:1009700093D535E0196803229143C2680A431A608F
:10098000B107EBD519680C22914302690A431A603A
:100990007107E5D5032189021A688A434169114329
:1009A00019603107DED5032109031A688A4381697A
:1009B000114319603E42D7D0032109041A688A43C3
:1009C000C169114319607106D0D5012189061A68E1
:1009D0008A43416A114319600025310600D45CE75F
:1009E00003218A0419689143006A08431860284665
:1009F00009B0F0BD826811462140A1420BD1039895
:100A0000024003231B05069D2C689C43194B089844
:100A100014432C60079C5A680A435A60B10691D56A
:100A2000426811462140A1420AD1039802400323A3
:100A30001B05069D2C689C430E4B089814432C60A4
:100A40005A680A435A600499002983D17DE7FFF769
:100A500081FE0546884C074B5868800500D569E73C
:100A6000FFF778FE401BA042F5D9009D284609B04B
:100A7000F0BDC0464C10024000700040F0B583B09D
:100A8000002846D00E4602907A4800680121019164
:100A90000840B04216D2774908680125A843304380
:100AA0000860754CFFF756FE0746724800682840FC
:100AB000B04207D0FFF74EFEC01BA042F5D903207D
:100AC00003B0F0BD029D28688107794C05D52168E7
:100AD000F0229143AA680A432260C0071CD16548EE
:100AE000006801273840B04224D962490868B843F9
:100AF0000860614CFFF72EFE05465E480068C0079F
:100B000018D0FFF727FE401BA042F6D9032003B000
:100B1000F0BD012003B0F0BD6A6821460C390968B8
:100B2000012A34D0032A2DD0022A72D189030198D8
:100B30002BD52FE0029B186841075D4C06D5072195
:100B4000090222688A43D96811432160000707D54A
:100B50000720C002216881431869C0000843206053
:100B600021680807820F6D487A4412795200974431
:100B70000154725B38042146083909680904490F99
:100B8000884068E08901019804D403B0F0BD4907AA
:100B90000198FAD521680320019081431143216017
:100BA000FFF7D8FD07466868334D03282BD002288D
:100BB0001ED001280AD120680C21014004298ED0C2
:100BC000FFF7C8FDC01BA842F5D909E0206800075F
:100BD000800F00D183E7FFF7BDFDC01BA842F5D908
:100BE000019803B0F0BDFFF7B5FDC01BA842F7D8D0
:100BF00020680C2101400829F5D170E7FFF7AAFD14
:100C0000C01BA842ECD820680C2101400C29F5D16A
:100C100065E789050198B8D5BCE720460C3800681F
:100C2000C00612D53F4816E08A02120F3C4B9A5C70
:100C30000902890F491C2368DB0309D420460C38BC
:100C40000068C00603D4384802E0374803E035485E
:100C5000504301F0CBFE21680906090F074A515C99
:100C6000C8401249086006480068FFF795FD03B0C8
:100C7000F0BDC0460020024088130000E22B0008AF
:100C80000400002009480068094909684905490F1E
:100C9000084A515CC8407047044800680449096824
:100CA0008904490F034A515CC8407047080000207E
:100CB0000C100240F22B000810B5844AD1680807D6
:100CC000830F16487B441B795B009F440108070D86
:100CD0000120000451680904490F884010BD1068C4
:100CE000C00613D50F4810BD8B021B0F0C4CE35CE4
:100CF0000902890F491CD468E40303D41068C006B4
:100D000006D40948584301F071FE10BD064810BDD5
:100D10000448584301F06AFE10BDC04600127A0034
:100D2000FA2B000800093D000024F400F0B589B05A
:100D3000002856D0654EF1680C220A400692012127
:100D400005910904F76804910F4007900078C007E7
:100D500010D00698082806D006980C2800D0D7E0B6
:100D6000002F00D1D4E03068800303D50798406895
:100D7000002852D007980078800735D4079800786B
:100D8000C0064DD407980078000767D40799087803
:100D9000400700D59CE00878800600D51FE1079841
:100DA000846A002C1AD006980C2800D068E1012C27
:100DB00033D0F068049A0240079BD96A8A422CD14A
:100DC0000F21890401401A6B914226D10321890524
:100DD0000840596B8842059800D055E2002009B0C0
:100DE000F0BD012009B0F0BD079BD868810604D58D
:100DF000316820221143316090430699042906D0BE
:100E000006990C2900D0A9E0002F00D0A6E0316897
:100E100000283AD10422114037D0059809B0F0BD1E
:100E2000012044020699002900D1ADE03168079AFB
:100E3000D2690002002A00D101E101433160FFF7CD
:100E400089FC05463068204200D008E1FFF782FCAB
:100E5000401B0228F6D9032009B0F0BD306D079978
:100E60004969002900D1D9E0012108433065FFF725
:100E700071FC0546306D800788D4FFF76BFC401B82
:100E80000228F7D9032009B0F0BD1F2109027268BA
:100E90008A4319690902114371603168092291433B
:100EA00001433160F1680807820FF8485200C046DC
:100EB0007A4492885200974403002401D8013A01F1
:100EC00070680004410F04988840CEE10010024091
:100ED00001221107B06B0840029002D1B06B0843A9
:100EE000B063019103921402EF4F3868C00523D418
:100EF000386820433860FFF72DFC054638682042EB
:100F00001AD1FFF727FC411B03206429F6D9BBE166
:100F1000306807994968049A914209D00522120461
:100F2000914200D0CDE005998904084330603068D3
:100F3000049908433060D3E007988168306D039BC3
:100F40005F02002900D12AE105221202914200D15C
:100F50001FE1A14200D036E1204339E13168002889
:100F600000D1D3E00922914301433160FFF7F2FB46
:100F700005463068400700D501E1FFF7EBFB411B58
:100F800003200229F5D97FE13168214204D0079975
:100F9000C969002900D177E10720400371688143C6
:100FA000079B586A01437160FF21090672688A43F2
:100FB000196A090689187160400B04998140F0682C
:100FC0000006000FB54A105CC140B5480160B54845
:100FD0000068FFF7E1FB002800D055E1D2E6B068D9
:100FE00007998969002900D1B3E001210843B06065
:100FF000706B084370634803AD490A6802430A6096
:10100000FFF7A8FB0546B068800700D5C7E6FFF7E5
:10101000A1FB411B03200229F5D935E101218843B9
:101020003065FFF797FB0546306D800700D4ADE6CD
:10103000FFF790FB411B03200229F5D924E18143EE
:101040003160FFF787FB05463068204200D199E602
:10105000FFF780FB411B03200229F5D914E107208B
:10106000400371688143079A506A08437060FF200B
:10107000000671688143106A00064018706081E6BE
:101080000120010632688A4332604706FFF762FB9F
:101090000546022C0AD13068384200D1C3E0FFF780
:1010A00059FB411B03200229F5D9EDE03068384295
:1010B00000D193E6FFF74EFB411B03200229F5D92F
:1010C000E2E0049A9043306030681040089008983D
:1010D00005988004326882433260002900D192E092
:1010E00005984404FFF736FB05463068204200D0DF
:1010F00040E6FFF72FFB401B6428F6D9032009B018
:10110000F0BD3068C0067CD56248AEE00120814366
:101110003160FFF71FFB05463068400700D42DE61D
:10112000FFF718FB411B03200229F5D9ACE08A0226
:10113000120F574B9A5C0902890F491CF368049CF3
:10114000234200D08EE03068C00600D589E05248C6
:1011500088E001218843B060480355490A6882430A
:101160000A60FFF7F7FA0546B068800700D416E674
:10117000FFF7F0FA411B03200229F5D984E01F2074
:10118000000271688143079800690002084370609B
:10119000F4E5990208433065306D204318E0A04320
:1011A00030659802316D81433165FFF7D3FA05460A
:1011B0003E4C306D38421AD0FFF7CCFA411B032069
:1011C000A142F6D960E0A04330659902306D8843B2
:1011D0003065FFF7BFFA0546344C306D384206D112
:1011E000FFF7B8FA411B0320A142F6D94CE0029860
:1011F0000028079900D0CEE5B06B019A9043B06308
:10120000C9E5254831E005984404FFF7A3FA0546EF
:101210003068204200D1ADE5FFF79CFA411B032066
:101220006429F5D930E0FD200004F1688143079B73
:101230002C330DCB084310431843F0602748401C63
:10124000316801433160FFF785FA0446306838425F
:1012500000D0C3E5FFF77EFA011B03200229F5D970
:1012600012E00C48504301F0C1FBF1680906090F78
:101270000A4A515CC8400A4908600A480068FFF7FA
:101280008BFA002800D179E509B0F0BD00127A0090
:10129000FA2B000800093D000024F400E22B0008AE
:1012A00008000020040000200070004088130000A7
:1012B00020000140401E010E01D001207047074967
:1012C000074A5060074803680B40032189075918F3
:1012D000016000209060072111607047FFFFFF0050
:1012E00010E000E020ED00E010B53822825C012A19
:1012F00001D1022010BD024638320223537000682B
:1013000043687024A3430C681C4383684460384CD2
:10131000A04207DC0124A407A04209D03D4CA04212
:1013200006D00AE0334CA04202D0334CA04204D194
:101330008024A34349681943816000201070012173
:10134000517010BDB0B5002819D005463835697800
:10135000002905D100212970044600F04FF82046ED
:101360000221697001680C68214B994209DC012255
:10137000920791420BD0274A914208D015E00120F4
:10138000B0BD1C4A914202D01B4A91420DD170223D
:1013900094438268224399420ADC01239B079942C5
:1013A0000CD01C4B994209D020E022469942F4DD32
:1013B000104B994202D0104B994217D103231B02C4
:1013C0009A43036913438022934342691A430A6094
:1013D000C268CA624068886201204861A871A8702A
:1013E000E8702871687168700020B0BD1346EAE7A4
:1013F000FF07014000140140000801400068054952
:10140000884200D070470448016802220A43026003
:101410007047C0460004004038100240F0B5382242
:10142000825C012A01D10220F0BD0246383202233B
:101430005370504E3346773B0468A0681840A06054
:101440000D6800234F2D1FDC1F2D36DD202D38D0D9
:10145000302D36D0402D00D087E0206A256A012645
:10146000B5432562A569F026B543CE6836012E4303
:10147000A6610A25A843496801432162A068472163
:101480000143302081436AE06F2D26DD01204703B0
:10149000BD4257D00003854218461AD0702D64D142
:1014A000A06830404D688E68C9682E4309023143F8
:1014B0000143A160A068772150E0002D01D0102DDC
:1014C00053D1A06870218843054307202843A060BA
:1014D0001846137001215170F0BD502D1BD0602DA6
:1014E00043D11020C043256A054025620F252D03F6
:1014F000A669AE43CD682D033543266AA561A025B4
:10150000AE434968090131432162A16867250D4353
:101510000540A56024E0206A256A0126B5432562BE
:10152000A569F026B543CE6836012E43A6610A258B
:10153000A843496801432162A06857210143202044
:1015400081430CE0A56835404E688F68C968374311
:10155000090239432943A1608003A1680143A160C6
:101560001846137001215170F0BD01201370012144
:101570005170F0BDFF00FFFF7047704780B5FEF768
:10158000C4FF80BDF0B587B003460168CD690C6823
:10159000202004940290044062426241012006909F
:1015A000C7023E462F362E40203E701E864116430F
:1015B0008E6857D003938033019738460F300595D6
:1015C0000542049D07D0E7482840012732463A40AB
:1015D000101800D09BE01024284620404742474185
:1015E0000398006E0128069A44D00598C006069F0D
:1015F00045D4002F46D00124A00506407242724116
:101600000598C002069E039800D51646002E00D10C
:101610008CE080222A4051425141059B1A06069ACD
:1016200000D50A46002A00D190E140210D406A42CF
:101630006A415B0600D50692069A002A00D009E1AD
:10164000EFF3108584F31088026813688B431360EE
:1016500085F310880021C1660299C16700F070FA15
:1016600007B0F0BD996E002900D1F3E01846884715
:1016700007B0F0BD3A460598C006069FB9D5174693
:10168000002FB8D1039F3D4658350C62886840064C
:1016900052D4698828886A88002A00D1DAE0884212
:1016A00000D1D7E00693EFF31083012282F3108874
:1016B00009256D013E68059139463768AF433760AB
:1016C00083F31088EFF3108382F310880D68AE68FF
:1016D0009643AE6083F31088029B069D2B60002327
:1016E0008B660B66EFF3108382F310880A68156827
:1016F000A543156083F3108802224A66059A801A72
:1017000082B208461146FFF737FF07B0F0BD380236
:101710002840464246410598C00706985CD10028FB
:101720005DD00097059DA80761D469E022050A6293
:10173000FFF723FF07B0F0BD786F006841688AB2F9
:10174000002A00D186E01E462B889A4200D381E011
:1017500069800068800634D4EFF31081012080F3A3
:101760001088824A203206963B681E6816401E602A
:1017700081F31088EFF3108180F310883A68936842
:101780008343936081F31088EFF3108180F3108816
:101790003A6893684026B343936081F310880299B6
:1017A000069A116000213966EFF3108180F31088EA
:1017B00038680268A243026081F31088786FFEF7F0
:1017C000A8FE0220786628886988401A81B23846C7
:1017D000FFF7D2FE07B0F0BD30460028A1D10F625E
:1017E0005868384358600097059DA80708D5002A17
:1017F00006D0022008625868042606435E60059DF4
:101800006807019F07D5002A05D0042008625868A0
:10181000022606435E602243564256410598000761
:10182000069A009D00D53246002A04D1082008629D
:101830005A6802435A60A806049D05406A426A41FC
:10184000059E3E42069D07D1002D08D0586800280D
:10185000039D0DD107B0F0BD1546002DF6D10F62E6
:101860005868029A1043586058680028039DF1D0C8
:101870000298064062426241002E00D0069206980D
:10188000002809D1AA6E002A06D02C4628461D46FB
:1018900090472B46254621685868282202408868D0
:1018A0004021084080181E4606D12846FFF766FEF4
:1018B0000020706007B0F0BDEFF31080009F87F349
:1018C0001088092252012B681C6894431C6080F325
:1018D0001088EFF3108087F310882A689368BB4361
:1018E000936080F31088286E01280BD1EFF31080ED
:1018F000009A82F310882A6813681024A3431360A7
:1019000080F310880298306000202866A866286856
:101910008068400621D5EFF31080009A82F310888A
:101920002A6893688B43936080F31088696F00295D
:1019300013D00D4888630846FEF70CFE002800D13E
:1019400088E7686F816B884707B0F0BDC16E0029DA
:1019500000D17FE7884707B0F0BD2846FFF70EFEAD
:1019600007B0F0BD20010004991D0008DFFEFFFF55
:10197000B0B5002817D00446C06F002805D17820E4
:1019800000212154204600F02BF82420E067206835
:1019900001680125A9430160204600F0E3FA002810
:1019A00003D02846B0BD0120B0BD606A002802D037
:1019B000204600F01FF90920C00221684A688243CE
:1019C0004A6088682A22904388600868012202439E
:1019D0000A60204600F078F905462846B0BD0000B0
:1019E00070B586B000240594049403940294019485
:1019F00000682B4988422DD04E4988424ED1294952
:101A00008A6801200390830313438B600A680243B2
:101A10000A600A6802400092009A0A6802252A4376
:101A20000A60096829400091042105910326049663
:101A300002958002019000980520000701A9FEF799
:101A4000BDFD0594049603940295402001901B244B
:101A5000154818E001204104124AD3680B43D360B3
:101A60001168014311601168014000910420059044
:101A7000032004900394022002900C20019000980F
:101A8000052000071C2401A9FEF798FD002120462F
:101A90000A46FEF7BBFE2046FEF7ACFE06B070BD60
:101AA000004400402C10024000040050F0B581B00A
:101AB0008023C358202B12D1012400290CD0002AE6
:101AC0000AD001231C038568A5420CD1CC070AD09B
:101AD0000469002C07D11C46204601B0F0BD022449
:101AE000204601B0F0BD002404660568E64EB5420C
:101AF0000DD06D682D020AD5EFF3108583F31088A1
:101B00009B06066837681F43376085F3108800F02E
:101B10003FFB204601B0F0BD80B500680549884212
:101B200000D080BD044801220270411C0348FFF729
:101B3000BDFF80BD0038014070000020CC000020B7
:101B40007047FEE780B5012100F06CFC80BDB0B5A8
:101B500004460698A0820798A075059D2561049DFE
:101B6000A5810EC40C3C002801D0382108E03321A7
:101B7000204600F057FC3221204600F053FC28217B
:101B8000204600F04FFC0121204600F04BFC0C21C8
:101B9000204600F047FC0621204600F043FCB0BD83
:101BA00080B5044B595C51188039C9B200F03AFC39
:101BB00080BDC046032C0008F0B581B0054608780A
:101BC00000280DD00C4600273E46E15D284600F077
:101BD000D0FC761CF7B22046FEF7B4FBB842F4D82E
:101BE00001B0F0BDFEE77047704780B5FEF7B6FD67
:101BF00080BD7047B0B5416ACA070CD18A0714D4BA
:101C00004A071CD40A0724D4CA062CD48A0634D422
:101C10004A063CD44CE00122520403685C689443B9
:101C2000826A22435A608A07EAD5012212040368B5
:101C30005C689443C26A22435A604A07E2D5012293
:101C4000920403685C689443026B22435A600A075B
:101C5000DAD50122D20303685C689443426B2243C5
:101C60005A60CA06D2D50122120303689C689443C5
:101C7000826B22439A608A06CAD501225203036806
:101C80009C689443C26B22439A604A0610D5012295
:101C90001305026854689C43056C2C4354609D42B4
:101CA00006D103235B0554689C43436C2343536074
:101CB000090607D50121C904026853688B43806C6B
:101CC00018435060B0BD0000F0B583B0044606462E
:101CD00078360025F560FEF73DFD03462068016873
:101CE000090721D502952B4800900125690500229E
:101CF00020461F4600F0B6FA002812D0EFF31080FD
:101D000085F3108821680A6880239A430A6080F36B
:101D10001088032020227C21029D6250357003B080
:101D2000F0BD20683B46029D0068400726D5194853
:101D300000900127B9050022204600F093FA002800
:101D40001CD0EFF3108087F3108809214901226825
:101D500013688B43136080F31088EFF3108087F3D0
:101D6000108821688A68BA438A6080F3108803204B
:101D7000202280216250357003B0F0BD2020E06742
:101D8000B060256664212A4628466250357003B04B
:101D9000F0BDC046FFFFFF0180B5806A01465231A9
:101DA00000220A8152214252FFF7E8FB80BD000069
:101DB000F0B581B0802141580268222910D1014636
:101DC00058318B88526A1A40436D1A804A88521ED5
:101DD0004A809A1C42654A88002A07D001B0F0BDAB
:101DE000906908210143916101B0F0BD0346803341
:101DF000EFF31084012282F3108809256D01066833
:101E00003768AF43376084F31088EFF3108482F3B0
:101E100010880568AE689643AE6084F3108820246D
:101E20001C600023836643660468C84DAC420DD035
:101E3000646824020AD5EFF3108482F310889506B3
:101E400006683768AF43376084F31088046E012C4E
:101E500015D10366EFF3108382F3108804682568B8
:101E600010229543256083F310880368DC69E4063B
:101E700000D51A620988FFF77FFB01B0F0BDFFF7BC
:101E80004BFE01B0F0BDC04600480040F0B581B047
:101E9000802141580268222911D1014658318B888E
:101EA000526A1A40436D1A704A88521E4A80426D27
:101EB000521C42654A88002A07D001B0F0BD9069E3
:101EC00008210143916101B0F0BD03468033EFF377
:101ED0001084012282F3108809256D010668376895
:101EE000AF43376084F31088EFF3108482F31088D7
:101EF0000568AE689643AE6084F3108820241C60A9
:101F00000023836643660468904DAC420DD064683C
:101F100024020AD5EFF3108482F310889506066830
:101F20003768AF43376084F31088046E012C15D1F5
:101F30000366EFF3108382F310880468256810228B
:101F40009543256083F310880368DC69E40600D5B7
:101F50001A620988FFF710FB01B0F0BDFFF7DCFD46
:101F600001B0F0BDF0B581B0044601680868764A5A
:101F70000240A06823690343606918431043E26983
:101F800010430860032630034B688343E06818431E
:101F90004860A5696D4B994202D0206A284300E051
:101FA00028460B252D028F68AF4307438F60684892
:101FB000814214DD0027674881421FD06648814274
:101FC0001CD06648814243D16648C06C8007000F30
:101FD00066A52F580125E803994213D13DE06048DA
:101FE000814205D0994233D15E48C06C000A01E0BD
:101FF0005C48C06C0C2505405B4847590125E80347
:1020000099422AD0824212D1082F00D996E0C046C8
:102010007F443F797F00BF44043C469152919191A7
:102020007300FEF72FFE002800D069E085E0082F3E
:1020300000D983E07F443F797F00BF44042F3A7F7B
:10204000457F7F7F7200FEF71DFE002869D174E096
:1020500010270125E8039942D4D1082F6ED8C04635
:102060007F443F797F00BF44046909690F6969694A
:102070003500FEF707FE00282CD15EE039480068E5
:10208000C00626D53E4825E0FEF716FE002821D1E1
:1020900053E0FEF701FE002832D14EE0FEF7FCFDD2
:1020A00000283ED149E02F480068C00627D53448B3
:1020B00026E02C480068C00632D5314831E0FEF7F2
:1020C000FBFD00281CD138E0FEF7F6FD002828D1E2
:1020D00033E02A4862685643B0422FD31103884246
:1020E0002CD8010E56080002002380195941FEF732
:1020F0006BF825494118254A91421CD31EE01F4820
:10210000400061684A08101800F070FC0246103A5E
:102110001C498A4212D201400007400F08430AE0DE
:10212000164861684A08101800F060FC0146103932
:10213000144A914202D22168C86000250020A0669E
:10214000E066284601B0F0BDF369FFEF00480040AB
:10215000FF4B0040004C0040005000400038014060
:102160000044004000100240082C0008010000005C
:102170000400000002000000080000000024F40039
:1021800000093D00F0FF000000FDFFFF00FD0F0013
:1021900070B55823C2524165002181660346583309
:1021A0005A80846802468032002C12D001252E0706
:1021B000B44208D02D03AC4214D10469002C0ED1D6
:1021C000254C9C800FE00469002C05D03F249C80A6
:1021D00009E00469002C02D07F249C8003E0FF24E6
:1021E0009C8000E09980516022211160EFF3108201
:1021F000012181F3108803689C680C439C6082F382
:10220000108802690B0384689C4204D1002A14D010
:10221000124A826603E0114B8366002A0FD0EFF367
:10222000108281F3108809214901006803680B437B
:10223000036082F31088002070BD094A8266EFF3C4
:10224000108281F310880068016820230B4303602B
:1022500082F31088002070BDFF0100008D1E000871
:10226000B11D0008F0B587B0069315460F46036808
:10227000D9693940C91B4A424A410026AA4220D1A5
:102280000C9C002C20D0611C23D1D9693940C91B7A
:102290004A424A41AA4214D1D9693940C91B4A422B
:1022A0004A41AA420DD1D9693940C91B4A424A4123
:1022B000AA4206D1D9693940C91B4A424A41AA42B9
:1022C000E3D0304607B0F0BDFEF744FA032007B074
:1022D000F0BD029601467831039101210191C902B6
:1022E0000491059006E0C9693940CA1B5142514129
:1022F000A9424ED1FEF72EFA0699411A0323A142B4
:1023000044D8059801680A685207ECD5CA691207D3
:1023100042D4CA692646049C22423446E3D01F4672
:1023200004980862EFF31082012181F310880923D9
:102330005B010598046825689D43256082F3108839
:10234000EFF3108281F31088059803689C688C4332
:102350009C60059882F31088026E012A0BD1EFF37E
:10236000108281F3108801680B681024A3430B606E
:10237000059882F310882021039B99600022026651
:1023800082661A70D960384607B0F0BD184607B0AB
:10239000F0BD029807B0F0BD08250D62EFF3108183
:1023A000019880F3108809225201059B1B681C6864
:1023B00094431C6081F31088EFF3108180F3108840
:1023C000059A1268936883439360059B81F3108894
:1023D000196E01290CD1EFF31081012282F31088CC
:1023E0001A6813681024A3431360059B81F31088B7
:1023F0002021039A91600021196699661170D560B9
:1024000007B0F0BD80B50248FFF7BCF880BDC046FC
:10241000CC00002080B50248FFF7B4F880BDC0466C
:102420005401002070B50D46044681898068002261
:10243000FEF788F9A07D00283CD001222A4003CC79
:1024400009880068083CFEF77DF903CC498840689C
:10245000AA07D20F083CFEF775F903CC898880687B
:102460006A07D20F083CFEF76DF903CCC988C06833
:102470002A07D20F083CFEF765F903CC09890069E9
:10248000EA06D20F083CFEF75DF903CC49894069A2
:10249000AA06D20F083CFEF755F903CC898980695A
:1024A0006A06D20F083CFEF74DF903CCC989C06912
:1024B000EA0949E003CC09880068EA06D20F083C23
:1024C000FEF740F903CC49884068AA06D20F083CC1
:1024D000FEF738F903CC898880686A06D20F083C79
:1024E000FEF730F903CCC988C068EA09083CFEF75A
:1024F00029F9A18A206901263246FEF723F93046E0
:10250000FEF74CF8A18A20690022FEF71BF92E4045
:1025100003CC0988083C00683246FEF713F903CC67
:1025200049884068AA07D20F083CFEF70BF903CC94
:10253000898880686A07D20F083CFEF703F903CC4C
:10254000C988C0682A07D20F083CFEF7FBF8264668
:10255000143610343188206801252A46FEF7F2F837
:102560002846FEF71BF8318820680022FEF7EAF8BB
:1025700070BD70B50D4604468189806801263246DB
:10258000FEF7E0F8A07D00283CD02E4003CC09885F
:1025900000683246083CFEF7D5F803CC498840680D
:1025A000AA07D20F083CFEF7CDF803CC89888068D3
:1025B0006A07D20F083CFEF7C5F803CCC988C0688B
:1025C0002A07D20F083CFEF7BDF803CC0989006941
:1025D000EA06D20F083CFEF7B5F803CC49894069FA
:1025E000AA06D20F083CFEF7ADF803CC89898069B2
:1025F0006A06D20F083CFEF7A5F803CCC989C0696A
:10260000EA0948E003CC09880068EA06D20F083CD2
:10261000FEF798F803CC49884068AA06D20F083C18
:10262000FEF790F803CC898880686A06D20F083CD0
:10263000FEF788F803CCC988C068EA09083CFEF7B1
:1026400081F8A18A20693246FEF77CF83046FDF712
:10265000A5FFA18A20690022FEF774F82E4003CC62
:102660000988083C00683246FEF76CF803CC4988BC
:102670004068AA07D20F083CFEF764F803CC8988AB
:1026800080686A07D20F083CFEF75CF803CCC98863
:10269000C0682A07D20F083CFEF754F826461436C5
:1026A00010343188206801252A46FEF74BF8284669
:1026B000FDF774FF318820680022FEF743F870BDF3
:1026C000ACB0FEF755F81EAC38212046FDF77AFE77
:1026D00000271C971B971A97199718970EA828215F
:1026E000FDF770FE03200C90C002AE490A688243D9
:1026F0007D2005015019303008600D972897052678
:1027000030041F9001271E972046FEF70FFB00287C
:1027100003D0EFF3108072B6FEE70A960C9C09977F
:102720000B950D9F1C971B971A97022619960F2041
:10273000189018A83946FEF7A1F9002803D0EFF346
:10274000108072B6FEE7129711970E940EA8FEF74E
:1027500079F8002803D0EFF3108072B6FEE72297D5
:10276000219720971F971E978F4801680422069291
:1027700011430160016811400E910E990168802299
:10278000079211430160016811400E910E99016892
:10279000099D29430160016829400E910E99016845
:1027A00031430160006830400E900E980A9800078F
:1027B0000A901921490108913A46FDF7C3FF4320C9
:1027C000010105913C4679483A46FDF7BBFF784840
:1027D000079F39462246FDF7B5FF209421200004CB
:1027E0001F9068031E901EAE71483146FDF7E6FE4D
:1027F000219420941F9508981E900A983146FDF761
:10280000DDFE219420941F9505981E90674831465F
:10281000FDF7D4FE219420941F951E9764483146FD
:10282000FDF7CCFE069822900C982190209412205F
:102830001F906F021E975D483146FDF7BFFE5D4E4B
:10284000089AC73207205C49F16130627462B26253
:10285000F4623463219420941F940F940E941C36D8
:102860003046FEF76FFD002803D0EFF3108072B6FC
:10287000FEE70C9728031E901EA93046FEF7CEFDFA
:10288000002803D0EFF3108072B6FEE70EA93046A1
:10289000FEF72AFD002803D0EFF3108072B6FEE7A2
:1028A00046480C2646490D9F076247624B22D501D8
:1028B000A2C0076047608660C76007610C38FFF7F9
:1028C00057F8002803D0EFF3108072B6FEE73D48BA
:1028D0003D49A2C0076047608660C76007614761E5
:1028E00087610C38FFF744F8002803D0EFF310801D
:1028F00072B6FEE72F4D691C3248099AFFF7D6F8E9
:102900000A9B1193294810900F900E902F48199010
:102910002F4818900C980090254801900798029035
:1029200003971EAE0EA918AA3046FFF710F92C1D0A
:1029300020460ECE0EC00ECE0EC026462046FFF715
:1029400001F9204639463A46FFF72AF921A12046E7
:10295000FFF732F900E02F7028780028FCD0687863
:102960003128F8D125462046FFF7ECF8002620460E
:1029700031463246FFF714F9204618A1FFF71CF93B
:10298000202501220A9F38462946FDF7DBFE0B98D9
:10299000FDF704FE38462946064D3246FDF7D2FEC5
:1029A0000D9FD8E7007000402C100240000400503A
:1029B0000008005070000020000400405401002076
:1029C00000440040CC000020003801400004000119
:1029D0002000100044454641554C540041454220DA
:1029E00041435449564154454400000043088B423A
:1029F0001AD3002203098B4279D3030A8B425ED398
:102A0000030B8B4242D3030C8B4227D30902FF22D4
:102A100012BA030C8B4202D31212090203D0030B29
:102A20008B4233D31AE0D3E0411A8041401C7047F7
:102A300003460B4371D443088B42F5D300220309AC
:102A40008B4254D3030A8B4239D3030B8B421DD3E1
:102A5000030C8B4202D394466EE0090AC30B8B42EF
:102A600001D3CB03C01A5241830B8B4201D38B039A
:102A7000C01A5241430B8B4201D34B03C01A52413F
:102A8000030B8B4201D30B03C01A5241C30A8B4282
:102A900001D3CB02C01A5241830A8B4201D38B026D
:102AA000C01A5241430A8B4201D34B02C01A524111
:102AB000030A8B4201D30B02C01A5241CDD2C30983
:102AC0008B4201D3CB01C01A524183098B4201D3FF
:102AD0008B01C01A524143098B4201D34B01C01AEA
:102AE000524103098B4201D30B01C01A5241C30862
:102AF0008B4201D3CB00C01A524183088B4201D3D1
:102B00008B00C01A524143088B4201D34B00C01ABC
:102B10005241411A524110007047CA0F00D0494239
:102B2000031000D34042534000229C4603098B42CD
:102B30002DD3030A8B4212D38901FC2212BA030A55
:102B40008B420CD3890192118B4208D389019211D7
:102B50008B4204D3890137D0921100E08909C3095F
:102B60008B4201D3CB01C01A524183098B4201D35E
:102B70008B01C01A524143098B4201D34B01C01A49
:102B8000524103098B4201D30B01C01A5241C308C1
:102B90008B4201D3CB00C01A524183088B4201D330
:102BA0008B00C01A5241D9D243088B4201D34B004B
:102BB000C01A5241411A00D20146524110466346A2
:102BC0005B1000D34042704763465B1000D3404225
:102BD00001B50021004201D0C9430846C046C046A5
:102BE00002BD00000000000000000102030406070F
:102BF00008090000000001020304030406080C1089
:102C000018203000401050000000000004000000B8
:102C10000200000008000000382C0008000000201E
:102C2000100000001C010008482C000810000020C3
:102C3000D00700003C010008010000000400000073
:082C400000002000000000006C
:04000005080000C12E
:00000001FF
