:020000040800F2
:1000000018090020B5020008EF390008ED39000892
:1000100000000000000000000000000000000000E0
:10002000000000000000000000000000CD3A0008C1
:100030000000000000000000F1390008CF3A00087D
:10004000C7020008C7020008C7020008C70200086C
:10005000C7020008C7020008C7020008C70200085C
:10006000C7020008C7020008C7020008C70200084C
:10007000C7020008C7020008C7020008C70200083C
:10008000C7020008C7020008C702000800000000FD
:10009000C7020008C7020008C7020008C70200081C
:1000A000C7020008C7020008C7020008E5420008AE
:1000B000C7020008C7020008C7020008C7020008FC
:1000C00000F002F800F0CBF812A030C8083824186D
:1000D0002D18AC4201D100F0C2F80FCCA246AB46BD
:1000E0000CA730CF2D1B083F3F197C427F1E544484
:1000F0002D090426F441641EAC4201D300F0AFF890
:100100000126334200D0FB1A3343984754465D46DC
:10011000DFE70000D0490000F0490000103A02D3A8
:1001200078C878C1FAD8520701D330C830C101D598
:1001300004680C6070470000704700000023002432
:1001400000250026103A01D378C1FBD8520700D30E
:1001500030C100D50B60704710B56E2902D100F098
:1001600074FC10BD702902D100F0ADFD10BD6629F0
:1001700002D104F0E9FB10BD652902D104F0E4FBD3
:1001800010BD672902D104F0DFFB10BD612902D147
:1001900004F0E2FB10BD03681B0A01D3802319435E
:1001A000692902D100F03CF910BD642902D100F0A8
:1001B00037F910BD752902D100F032F910BD6F2951
:1001C00002D100F02BFD10BD782902D100F068FDAE
:1001D00010BDE92902D100F0C7FC10BDE42902D10D
:1001E00000F0C2FC10BDF52902D100F0BDFC10BD2D
:1001F000EF2902D100F01EFD10BDF82902D100F058
:100200005DFD10BD0368DB0901D380231943632919
:1002100002D101F038F910BD732902D101F03BF988
:1002200010BDE32902D101F045F910BDF32902D137
:1002300001F048F910BD002010BD1FB501F08EF986
:1002400004000020002104F069FB401C60600020D5
:10025000002104F04DFBE0601FBD10B510BD01F0A2
:1002600056F91146FFF7E9FF04F042F801F0EAFC05
:1002700003B4FFF7F2FF03BC01F048FD70B505467B
:100280000C46164602E00FCC0FC5103E102EFAD2D7
:10029000082E02D303CC03C5083E042E07D301CC9D
:1002A00001C5361F03E021782970641C6D1C761E81
:1002B000F9D270BD0748804707480047FEE7FEE7D0
:1002C000FEE7FEE7FEE7FEE704480549054A064B60
:1002D00070470000D73A0008C1000008180300204A
:1002E000180900201805002018050020FEB5044656
:1002F00010460D46184373D0A6468C460020A41A1B
:1003000001469D4167D36646002701243D46B61A43
:100310009D4102D313463A462124654676462F0472
:10032000360C3E432D0CB61A9D4104D3150C1B040C
:100330002B4312041034654676462F06360A3E4398
:100340002D0AB61A9D4104D3150E1B022B4312022F
:100350000834654676462F0736093E432D09B61AFE
:100360009D4104D3150F1B012B431201241D65462B
:100370007646AF07B6083E43AD08B61A9D4104D392
:10038000950F9B002B439200A41C65467646EF0711
:1003900076083E436D08B61A9D411AD392185B4108
:1003A000641C16E00018764665464941B71A9D411F
:1003B0000191009009D36046B11A98418E46844657
:1003C000009801990025401C6941DD0752082A4325
:1003D0005B08641EE6D57246634603B0F0BDFFE7D6
:1003E0002046284307D00020C0430146C046C046EF
:1003F00022462B46F1E700200146F7E71CB50C46E4
:10040000064B7B4469460090204600F036FB0446CC
:100410000020694600F044FB20461CBD9B060000FE
:10042000F7B5002575291068009914A611D000F0C1
:1004300079FA002802DA404211A608E0009909681A
:100440008A0701D50FA602E0490704D50EA60125AB
:1004500001E000F070FA009F0024243704E000F06F
:100460003FFC30313955641C0028F8D12B46324608
:100470002146009800F091FAFEBD00000000000047
:100480002D0000002B00000020000000F3B5044602
:10049000002081B020622046E1688847002872D0A1
:1004A000252802D06268A168ABE0594F00267F443E
:1004B0002046E16888472028054608DB312D06D212
:1004C000781920380078002801D00643F0E7B007FB
:1004D00001D5042086430020E0610746A0612A2D53
:1004E0000AD0284604F0FCF9002827D0B8000019EB
:1004F000303D0090856119E00298BA00121902C8D7
:10050000916102902046E1688847012F054617D186
:10051000E06900281FDA202086431CE000980A21A9
:100520008069484300994019303888612046E16865
:100530008847054604F0D4F90028EFD1012F0AD0EE
:100540002E2D08D12046E168884705462020064325
:100550007F1C022FC3DBA069002803DA4042A061A0
:1005600001200643F00701D0102086436C2D0BD0EC
:10057000682D09D04C2D3CD06A2D38D0742D38D040
:100580007A2D36D016E040E0E1682F4620468847B5
:10059000B842054609D16C2F29D001208002E168BC
:1005A000064320468847054604E06C2F1DD0FF20F7
:1005B00001300643002D28D028464138192803D899
:1005C0000120C00206432035204626602946029AB3
:1005D0001646FFF7C1FD002810D001280BD0F61DEC
:1005E000F008C0000830029055E74020E1E7802085
:1005F000D5E70020D3E7361D02964CE7626828460F
:10060000A1689047206A401C44E7206AFEBD0000B4
:10061000B6440000F8B5042A2CD3830712D00B7817
:10062000491C0370401C521E83070BD00B78491CD9
:100630000370401C521E830704D00B78491C0370C2
:10064000401C521E8B079B0F05D0C91ADF002023C8
:10065000DE1B08C90AE0FFF711FEF8BD1D4608C9F8
:10066000FD401C46B4402C4310C0121F042AF5D292
:10067000F308C91A521EF0D40B78491C0370401CB1
:10068000521EEAD40B78491C0370401C012AE4D4A2
:1006900009780170F8BD01E004C0091F0429FBD2EC
:1006A0008B0701D50280801CC90700D002707047FB
:1006B00000290BD0C30702D00270401C491E02293A
:1006C00004D3830702D50280801C891EE3E7002241
:1006D000EEE70022DFE70000002203098B4273D31C
:1006E000030A8B4258D3030B8B423CD3030C8B423F
:1006F00021D312E003460B437FD4002243088B42F0
:1007000074D303098B425FD3030A8B4244D3030B98
:100710008B4228D3030C8B420DD30902FF2212BA5D
:10072000030C8B4202D31212090265D0030B8B42D9
:1007300019D300E0090AC30B8B4201D3CB03C01AC3
:100740005241830B8B4201D38B03C01A5241430B9E
:100750008B4201D34B03C01A5241030B8B4201D38E
:100760000B03C01A5241C30A8B4201D3CB02C01AF9
:100770005241830A8B4201D38B02C01A5241430A71
:100780008B4201D34B02C01A5241030A8B4201D360
:100790000B02C01A5241CDD2C3098B4201D3CB0107
:1007A000C01A524183098B4201D38B01C01A5241B6
:1007B00043098B4201D34B01C01A524103098B42BA
:1007C00001D30B01C01A5241C3088B4201D3CB00A5
:1007D000C01A524183088B4201D38B00C01A524188
:1007E00043088B4201D34B00C01A5241411A00D238
:1007F00001465241104670475DE0CA0F00D04942A1
:10080000031000D3404253409C46002203098B4210
:100810002DD3030A8B4212D38901FC2212BA030A98
:100820008B420CD3890192118B4208D3890192111A
:100830008B4204D389013AD0921100E08909C3099F
:100840008B4201D3CB01C01A524183098B4201D3A1
:100850008B01C01A524143098B4201D34B01C01A8C
:10086000524103098B4201D30B01C01A5241C30804
:100870008B4201D3CB00C01A524183088B4201D373
:100880008B00C01A5241D9D243088B4201D34B008E
:10089000C01A5241411A00D20146524110466346E5
:1008A0005B1001D34042002B00D54942704763469C
:1008B0005B1000D3404201B50449002802DC491C0A
:1008C000084000E00846C046C04602BDFFFFFF7F6B
:1008D00070477047704770B5044685690068C10667
:1008E00001D5302600E02026C00707D070BD626821
:1008F0003046A1689047206A401C20626D1EF6D5E4
:1009000070BD70B5044685690078C00707D170BD19
:100910006268A16820209047206A401C20626D1EFA
:10092000F6D570BD09684A0501D540B27047C905C2
:10093000FCD500B2704709684A0501D5C0B27047BE
:10094000C905FCD580B2704770B50C460546012A32
:1009500005D02878800600D5EA69002302E001234B
:1009600005E05B1C934202D2E05C0028F9D1A86943
:10097000E618C01AA861286AC01828622846FFF73E
:10098000AAFF04E06A682078A968641C9047B44212
:10099000F8D32846FFF7B5FF70BDFFB504460D46F6
:1009A00081B0243000902168880604D51022E069C7
:1009B0009143216000E00120A84201DD471B00E0D7
:1009C00000270498A1697A191018081AA0612078E4
:1009D000C00602D42046FFF77EFF002608E00398F9
:1009E0006268A168805D9047206A401C761C206286
:1009F00004988642F3DB2078C0060AD52046FFF72C
:100A00006AFF06E06268A16830209047206A401CB7
:100A1000206238467F1E0028F4DC07E000986268F8
:100A2000A168405D9047206A401C206228466D1EE8
:100A30000028F3DC2046FFF764FF2078000602D58B
:100A4000022005B0F0BD0120FBE711680268006AD2
:100A5000530501D5087009E0D30501D5088005E0EC
:100A6000130602D5C21705C100E0086001207047D7
:100A700001694A1C02610878704700B58FB0029185
:100A80000021059105490193794403911146049091
:100A90006846FFF7FBFC0FB000BD0000E5FFFFFF5D
:100AA0000A681070521C0A6070470000F7B50446CF
:100AB000154686B02B487844002703C83E46009070
:100AC000019111E007986A467100415A02A800F0AE
:100AD000FDFC411C07D02178890603D5E26939184D
:100AE00091420ED83F18761C2078800602D5E06926
:100AF000B84206DDAE42E5DB07987100405A002897
:100B0000E0D1A069C01BA0612046FFF7E4FE1548B4
:100B100078445A3803C800900020019116E0410043
:100B20006A460798415A02A800F0D0FC0590401C84
:100B30000AD0002505E0626802A8A168405D9047E0
:100B40006D1C05988542F6D30498401CB042049071
:100B5000E5DB206AC01920622046FFF7D2FE09B00B
:100B6000F0BD0000C23E0000F7B5D21D0025D2083E
:100B700015A6D200F52905CA11D0002A05DA0021F0
:100B80004042914111A60A4608E0009909688B0786
:100B900001D50FA602E0490701D50EA60125114691
:100BA000009F0024243704E000F0AEF830323A55BC
:100BB000641C02460A43F7D12B4632462146009870
:100BC000FFF7EBFEFEBD0000000000002D0000005E
:100BD0002B0000002000000070B5044600212434E2
:100BE00008E05507D2086D0F303565545D072A437C
:100BF000DB08491C15461D43F3D10468002310A2ED
:100C0000250708D520252C400C4304D0C4690123B6
:100C10000CA2641EC461FFF7C0FE70BD10B504468F
:100C200021461068FFF787FE002302462046FFF7A3
:100C3000D3FF10BDD21DD108C9000CC9CCE70000FC
:100C40000000000030000000F8B50F4601880905DB
:100C500002D5224C7C4402E0204C7C440E340546F4
:100C60000021243508E016071209360FA65D6E54E0
:100C70001E0732431B09491C16461E43F3D1224668
:100C800004780023240705D5702F06D0002901D051
:100C900002231132FFF781FEF8BD01231032F9E77C
:100CA00070B504460D4621461068FFF744FE002348
:100CB000024629462046FFF7C7FF70BDD21DD30864
:100CC000DB000CCBC0E730B4036820241268234358
:100CD00003600823C36130BC0023B5E72C3D00004E
:100CE00001468008081A02091018020A1018020C9E
:100CF0001018C008820012185200891A01E0401C26
:100D00000A390A29FBD270470B4670B5024689079B
:100D10008008084319469D08141AA94125090807A7
:100D2000054308092C194841250A01060D43010A0B
:100D30002C194141200C0D0428430D0C00194D4184
:100D4000002140194D41C00869070843E908840F94
:100D50008D002543840024184D4124196D41121B38
:100D6000AB4107E00925ED432C11521963410024E2
:100D7000401C61411C460A250026551BB441F1D296
:100D800070BD0000FFB50C461E468FB003CA089028
:100D900009914F007D0D00D16D1E002108460020F5
:100DA000C0460321099A89050840002A03DA820017
:100DB000801840080840800D01280A9002DD0020BC
:100DC000C0430A90089807430DD0F048F04928180E
:100DD00048430714189800281DD07542291E1DDDB0
:100DE0000A9842421BE01898012802D000203021C6
:100DF00004E00020F24305E02154401CB042FBDB3C
:100E000030460022189B002121540F998B600A6004
:100E1000486013B0F0BDBD1B6D1CDFE70A9A0029C6
:100E200000DA69420BA800F0E1FB0BAB07CB03AB88
:100E300007C30899099800F045FC6B4607C30146B3
:100E4000D4480918002D00910BDDD24903980A9A65
:100E500049424018002303A90390684600F0A2FE0F
:100E600008E003990A9A0023081803A9039068462A
:100E700000F042FE6B4607C30004000C03D00020C4
:100E8000C043410800E01046189A002A03D000220F
:100E9000009215461EE0751E05D4FFF735FF30326F
:100EA00062556D1EF9D501220843079602D0002233
:100EB0007F1C04E02078302801D100227F1E002A08
:100EC000069787D01EE0112D07DAFFF71DFF30329D
:100ED00062556D1C02460A43F5D1084303D00098C1
:100EE000002819D00EE00021681E05E0235C625C3A
:100EF00063542254401E491C8142F7DBA81B401E4C
:100F000007950690079A18990020A0540F98079B00
:100F1000069A81600CC07CE711260020189059E7E2
:100F2000D21DF0B50D460446D10893B0C90003C9DF
:100F30000C900D9103F0BEFC02460D98C00F01D03D
:100F40002D2007E02068810701D52B2002E0400713
:100F5000C00F4001032A0F9001D0072A05DB03468A
:100F60002946204600F0FEFA0EE12078800601D5E1
:100F7000E76900E006272846652D04D0662814D0CE
:100F8000672D69D12DE00020112F009001DB112386
:100F900000E07B1C0CAA03A910A8FFF7F3FE11992F
:100FA000002610987D1C0E9142E001203B460CAAC1
:100FB000C0070B900120009003A910A8FFF7E2FEE4
:100FC000119D12981099002600280E9501D1781CC9
:100FD0000D18781B02D446427D1C761EE81B00903B
:100FE0003AE0012F00DA01270020112F009001DDE7
:100FF000112300E03B460CAA03A910A8FFF7C2FE8C
:1010000011993D46109800260E91217809070BD4BE
:101010000E99A94200DA0D4603A9012D04DD4A19F3
:10102000203AD27F302A06D0B84201DA011D04DA14
:10103000012100910FE06D1EEFE7002802DC861908
:101040002D1A03E0411CA94200DD0D46801B401C07
:1010500000900120C0070B902078000705D400986D
:10106000A84202DB0020C043009069460020C872FD
:101070000B98012102AF0337C907884225D002200F
:1010800010902B2011900B9800280BDA40420B9007
:101090002D20119006E00B98FFF722FE30317F1EC5
:1010A0000B9039701099481E00291090F3DC0B98B2
:1010B0000028F0D111987F1E38702088000501D5D6
:1010C000452000E065207F1E387001A8C01BC01DB0
:1010D0000B900F98002800D0012041190098C017EC
:1010E00009180B980818A169081A401EA0612078F9
:1010F000C00602D42046FFF7EEFB0F98002805D06B
:101100006268A1689047206A401C20622078C0066F
:1011100025D52046FFF7DFFB21E0002E07DB0E98E8
:10112000B04204DD03A86268805DA16802E06268E5
:10113000A16830209047206A761C401C20620098ED
:10114000401E002800900AD100F008FAC0686268CA
:101150000168405CA1689047206A401C20622846D4
:101160006D1E0028D9DC07E062683878A1687F1C12
:101170009047206A401C20620B99481E00290B9062
:10118000F2DC2046FFF7BDFB032042E601FCFFFF37
:10119000104D0000E1DFFFFFD21DF0B504460D4603
:1011A000D0088DB0C000466807683146384603F065
:1011B00081FB0246F00F01D02D2307E02068810754
:1011C00001D52B2302E04007C00F43016846002BE6
:1011D000037001D0012000E00020032A0A9001D012
:1011E000072A04DB2946204600F0BCF92DE12078CF
:1011F000800601D40D2500E0E5697000400D0D2D3D
:1012000001904BDA300D00210B9008460020C046BB
:10121000032189050840002E05DA82008018C20FDC
:101220001018401008408015012801DD0020C0433F
:10123000A9000023182906D39C460A460123183A20
:101240001B07D34003E001221205CA4094460C312B
:10125000202902D33A46203900E032468A4000284D
:1012600002DD002A06D119E0002817D10121C907A3
:101270008A4213D3194663467F185E41002806D17F
:101280000120C007824202D1084687439E430B9843
:10129000310D814202D00198401C01902088000548
:1012A00002D57149794402E06F49794419396B4696
:1012B0000A9830221A540A980A7C401C1A54401C7E
:1012C0000A900198002801DC302000E031201872DB
:1012D000019A0120002A02D0644BD21804E0720067
:1012E0003A4302D0614A521C0192002D02DC22785E
:1012F000120703D56A462E2050720220002286462D
:1013000094460CE032033601120F6D1E8B5C02AA6C
:1013100013546246521C401C9446052A01DA002DE3
:10132000F0DC002202AE08E03B0F3F01CB5C521C18
:101330006D1E3354401C082A01DA002DF4DC2368AA
:101340009A0601D511E0401E704504DD3218203A9E
:10135000D27F302AF7D0002807DD3218203AD27F1A
:101360002E2A02D11A0700D4401E002D03DD3E2292
:101370003254401C6D1E497C31540199401C002997
:1013800006DA2D21471C315401984042019003E0B8
:101390002B21471C315401987D21C900884206DB6E
:1013A000FFF7A8F93030F0557F1C019101E0642867
:1013B00008DB01986421FFF79DF93030F0557F1C60
:1013C000019101E00A2806DB01980A21FFF792F952
:1013D0003030F0557F1C01980A21FFF78BF930312E
:1013E000F1550A98A1697F1C7A191018081AA06192
:1013F0002078C00602D42046FFF76DFA216A6E46B7
:101400000A980818206204E062683078A168761CA7
:1014100090470A98401E0A90401CF5D12078C006DB
:1014200002D52046FFF757FA02AE09E03078761C65
:101430003E280DD06268A1689047206A401C206257
:101440007F1EF3D22046FFF75CFA0DB00320F0BDFB
:10145000206A4019206203E06268A168302090474A
:101460006D1EEDD3F8E700001737000001FCFFFF09
:1014700010B54369002B02D0C046C04601E0FFF71B
:1014800063FA012010BD1278014624310A7000224F
:101490004A700122ECE711680022D243E8E710B558
:1014A0004369002B02D0C046C04601E0FFF7FEFAB8
:1014B000012010BD12880146243182840022C2849A
:1014C0000122ECE711680022D243E8E7F8B516469E
:1014D0000C46054600F03AF80368FF200230C05C75
:1014E000012807D0FF2C0FD8185D00280CD0012050
:1014F0002C70F8BDFF333246214608331868C718F0
:1015000028460023B847F8BD0020C043F8BD754603
:1015100000F0A0FBAE46050069465346C008C00077
:10152000854618B020B5FEF7CFFE60BCB646002653
:101530000027C0C5C0C5C0C5C0C5C0C5C0C5C0C5E1
:10154000C0C5403D490849008D46704710B500F0C0
:1015500005F8001D10BD00BFC533000000487047EE
:1015600030000020F8B51F46044601230068DB0266
:10157000032601461840072A05DB002801D017A5DD
:1015800006E017A504E0002801D016A500E016A586
:10159000102081432160A069C01E002FA06101D0EE
:1015A000401EA0612046FFF796F9002F09D038466B
:1015B0006268A1689047206A401C2062C01C2062BB
:1015C00006E0206AFAE762682878A1686D1C9047F7
:1015D000761EF8D22046FFF794F9F8BD4E414E0032
:1015E0006E616E00494E4600696E6600F7B516469C
:1015F0008AB0334878446C4603467C33C06F5A68DF
:101600009B680DC42E487844763003AC0DC80DC4D9
:101610003720C001081837211B30FFF76BF805464B
:101620000C46803D1B3C02D56442012000E00020B6
:101630000027099010E0E0070CD00C2020497843E7
:10164000794432464C3941186846012300F054FA77
:101650006B4607C364107F1C002CECD1184F7F44ED
:101660002E3F16E0E80712D02001C0190EC80691DF
:10167000089307920068F04201D198190890324609
:10168000012306A903A800F037FA03AB07C36D10C6
:10169000641C002DE6D10998002806D03246694620
:1016A000012303A800F07EFA05E0012332466946D3
:1016B00003A800F021FA0A9B07C30DB0F0BD00009B
:1016C000DC330000034640000A4610B5400D0BD045
:1016D0000121C9070F24A40200191C036408214337
:1016E000540D2143D20207E000210120F2E7D40F7C
:1016F000490021435200401E0029F8DADB0FDB07C6
:10170000184310BDFFB50D46144685B048685168B2
:1017100003F0B7F800910190A868A16803F0B1F850
:1017200002910390A868616803F0ABF8029A12185E
:101730008242029201D2012000E00020019A0B189F
:10174000D2180028019202D08A4202D903E08A42CC
:1017500001D2012000E0002000990818009068687C
:10176000A16803F08EF8029A12188242029201D206
:10177000012000E00020019A0B18D21800280192E5
:1017800002D08A4202D903E08A4201D2012000E05D
:10179000002000990818009028682168400049003E
:1017A000400849084018FA49471814E001994000D8
:1017B000C90F08430090019802994000C90F0843DF
:1017C0000190029803994000C90F084302900398C2
:1017D00040007F1E039000980028E7DA0898002850
:1017E00001D0EC4E00E00026B74201DA012000E013
:1017F0000020002804902AD0F71BF806C00E15D050
:10180000029B2021091A039A8B401A430392029AE1
:10181000019BC2408B401A430292019A009BC24036
:101820008B4000991A430192C14000917B110DD069
:101830006F460320C11A03D500218200B95003E08E
:101840008A008100BA587A50401EF3D53746039873
:101850000299002800D00120014308980291002835
:1018600008460CD0002800D001200199019A4905B2
:1018700008430121D20AC902D202019200E00121EB
:101880000E9B0122D207012B02D0002B03D013E0C4
:10189000002807D120E0904204D890420CD1019B4F
:1018A0000B4209D0019B5918019105D10099491C9F
:1018B000009101D17F1C009200280DD01021084614
:1018C0000020C0460498002806D00F98002803D0B6
:1018D000082108460020C04628682168019B009A1C
:1018E0004840C10F0598C90739430EC009B0F0BD83
:1018F000FFB587B0099A08980899536892684068BC
:10190000896896460022039317469446089A1268FF
:101910005300099A5B081268520052089A1A9E4BAB
:10192000D4180A9A002A01D0352200E040220692FB
:101930000022012315460492DB07059324E0002DC5
:1019400005D175460346039E4D1BB34109D3754629
:101950006646039B491B049D9841059B7519AC463F
:101960005F4163463B4308D0059B049EDD07760834
:101970002E435B080496059301E0521E641EC50FBA
:10198000ED0749184041521C069B9A42D7DB002DB7
:1019900004D17546039A6B1A824101D203200CE0F0
:1019A000039A0B466B404240134303D0014303D0DC
:1019B000012002E0022000E00020614601910021A8
:1019C000009702910A99002905D06146400201431F
:1019D000704B019102E08007002302909C4201DAE3
:1019E000012000E0002007003AD01A1BD006C00EEC
:1019F00015D0029D2021019C091AC5408C40254329
:101A0000029C8C4000D001242543019C0295009D3E
:101A1000C4408D4000992C430194C1400091541161
:101A20001DD06D460221002202290CD10320001B8B
:101A300007E0002804DB8600AE59002E00D001220A
:101A4000401C0328F5DB081B02D588002A5004E05F
:101A50008000285810438A00A850491EE3D51C4630
:101A60000A98002802980CD0002800D00120019983
:101A7000019A490508430121D20AC902D202019202
:101A800000E00121109B0122D207012B02D0002B84
:101A900003D013E0002807D11FE0904204D8904201
:101AA0000CD1019B0B4209D0019B5918019105D122
:101AB0000099491C009101D1641C009200280CD0AF
:101AC000102108460020C046002F06D0119800289B
:101AD00003D0082108460020C04608980999019AB9
:101AE000009B006809684840C10F0798C907214357
:101AF00082600AC00BB0F0BD00B585B001930092C2
:101B00000A460146002302A8FFF7FCFD02A807C809
:101B100005B000BDFFB50A461F4685B00799019381
:101B200001230091014602A8FFF7ECFD02990398FA
:101B3000049ECA0F4900D20700920F224908920260
:101B40008C1A0021002800DB0C46450013486D0864
:101B5000844214D3079A002A04DA441E0026104D4A
:101B6000F64302E004460D460E46102108460020CA
:101B7000C046002F03D0042108460020C04620059F
:101B8000E90A0843009908436905F20A1143ADE6E2
:101B900002C0FFFF013C0000FF3F0000FF07000004
:101BA000FFFFFF7F00B585B0019300920A46014612
:101BB000002302A8FFF79CFE02A807C8A8E7FFB50C
:101BC0000A461F4685B007990193012300910146FB
:101BD00002A8FFF78DFE02990398049ECA0F4900E0
:101BE000D20700920F22490892028C1A0021002885
:101BF00000DB0C46450011486D08844214D3079A57
:101C0000002A04DA441E00260D4DF64302E0044685
:101C10000D460E46102108460020C046002F03D076
:101C2000042108460020C0462005E90A084300991F
:101C300008436905F20A114358E60000FF07000057
:101C4000FFFFFF7F10B50446C046C0462046FEF7A2
:101C50000FFB10BD004870471000002082078B0763
:101C60009A423FD170B5920F0AD0032402780B78C4
:101C7000401C491C002A33D09A4231D12042F5D170
:101C8000214EF40104C808C9951B9543254018D17D
:101C90009A420FD104C808C9951B9543254010D11D
:101CA0009A4207D104C808C9951B9543254008D11D
:101CB0009A42E7D012BA1BBA01209A4200D240429F
:101CC00070BD12BA1BBA2DBA18241000E0401900DA
:101CD000E140401A05D12E00E64002D1083CF4D183
:101CE000D01A70BD02780B78401C491C002A09D01C
:101CF0009A4207D102780B78401C491C002A01D077
:101D00009A42EFD0D01A7047010101010149182011
:101D1000ABBEFEE7260002007047EFF3108072B6FC
:101D2000FEE710B5014624314A78022A14D1026830
:101D300013680E24A343136013680124A3431360A4
:101D4000026C406C1C2303402046984050604C704D
:101D5000002000220A7010BD0422C263012000226C
:101D60000A7010BDB0B5014624314A78022A18D154
:101D7000026813680E24A343136013680125AB4364
:101D80001360026C436C1C241C402B46A340536020
:101D900000240C704D70816B002900D088472046CC
:101DA000B0BD0421C1630120B0BD0000F0B58AB010
:101DB00007900B68002B00D1B3E00E465A480799F4
:101DC000814201D0062000E005200B210907079A77
:101DD00052180A21CA410192052A00D3019007989E
:101DE00020300090002215461746029619460BE057
:101DF00021434E4801607F1C31680846F840121D9F
:101E0000AD1C002800D18CE001231846B8400140E9
:101E1000F1D0059306920391324603263146A9403C
:101E20000495CD4351680C463440631E012B089540
:101E3000099110D807998B682B40D668049DAE4055
:101E40001E438E60099AD306DB0FBB404E68864363
:101E50001E434E6006E0032C049D03D13446029ECF
:101E6000069A1DE00799C868089A1040029EB36858
:101E7000AB400343CB60022C069A11D11C201040CA
:101E80000F218140FB089B00009AD4588C43316994
:101E900081402143D150069A706803240990044080
:101EA000AC4007990868089B1840204308600998CF
:101EB0008003800F059B9ED04C490868184308603A
:101EC0000C2010400F21814003233C469C43184BBB
:101ED000E3588B4301998140194315482150134819
:101EE00081687068C30202D5039C214301E0039C12
:101EF000A1430E4B9960D968830201D5214300E0CC
:101F0000A1430A4BD9605968830301D5214300E0FE
:101F1000A143064B59601968C00300D568E7A14387
:101F200067E70AB0F0BDC046001C00500004014045
:101F30000800014000690840411E88417047002A9E
:101F400002D018228150704728228150704700002B
:101F5000054800687047C0461D48007802490A6875
:101F6000101808607047C0461403002010B50848D8
:101F7000016840220A4302600024204600F00AF86B
:101F8000002801D0012010BD00F026F8204610BD29
:101F90000020024070B504467D20C0000C4E317810
:101FA00002F074FB01460B48006802F06FFB00F082
:101FB0007FFD0125032C08D8002806D10025E84321
:101FC00021462A4600F020F87460284670BDC046BD
:101FD000000000200C000020044801680122114389
:101FE0000160110742680A434260704734100240A2
:101FF000002805D41F2108400121814001480160CB
:102000007047C04600E100E0002805D403220346E3
:1020100093430A4A9A1803E00C220240064BD21856
:102020008007C00E8901C9B28140FF238340106838
:10203000984308431060704714ED00E000E400E0AE
:10204000F0B589B0066801252F02EA021146203159
:10205000874B0E427CD0059208902907143B1868E4
:102060000840049002D11868084318600193029157
:10207000804C2068384211D1206838432060FFF737
:1020800067FF06462068384208D1FFF761FF801BD2
:102090006428F7D90325284609B0F0BD0326340586
:1020A00073484C38069001682140089B58680246E6
:1020B000039422400096340491420AD10246224001
:1020C000A242069E0DD19A68039B1A40914205D107
:1020D00007E001462140A142069E02D131688903F2
:1020E000D9D4634B59680794214021D0079A1040F6
:1020F000814203D00898007880060AD40898806846
:10210000079A1040814213D0089800680599084248
:102110000ED05868E9045A680A435A605A688A43DC
:102120005A600146079A91435960384200D08CE0CA
:102130000898066805990E42079C59D1B1066DD4DE
:102140000499002904D1019C2168029A91432160DD
:10215000F1070DD1B10713D4710719D4310720D479
:102160003E4227D171062ED40025310693D535E0A5
:10217000196803229143C2680A431A60B107EBD57C
:1021800019680C22914302690A431A607107E5D568
:10219000032189021A688A43416911431960310792
:1021A000DED5032109031A688A4381691143196046
:1021B0003E42D7D0032109041A688A43C1691143FA
:1021C00019607106D0D5012189061A688A43416ACF
:1021D000114319600025310600D45CE703218A040D
:1021E00019689143006A08431860284609B0F0BD99
:1021F000826811462140A1420BD10398024003237B
:102200001B05069D2C689C43194B089814432C60B1
:10221000079C5A680A435A60B10691D54268114634
:102220002140A1420AD10398024003231B05069DC9
:102230002C689C430E4B089814432C605A680A4340
:102240005A600499002983D17DE7FFF781FE054696
:10225000884C074B5868800500D569E7FFF778FE82
:10226000401BA042F5D9009D284609B0F0BDC046EC
:102270004C10024000700040F0B583B0002846D0FA
:102280000E4602907A480068012101910840B04250
:1022900016D2774908680125A84330430860754C79
:1022A000FFF756FE0746724800682840B04207D044
:1022B000FFF74EFEC01BA042F5D9032003B0F0BDCE
:1022C000029D28688107794C05D52168F022914349
:1022D000AA680A432260C0071CD16548006801272C
:1022E0003840B04224D962490868B8430860614C5C
:1022F000FFF72EFE05465E480068C00718D0FFF7BE
:1023000027FE401BA042F6D9032003B0F0BD0120F8
:1023100003B0F0BD6A6821460C390968012A34D03F
:10232000032A2DD0022A72D1890301982BD52FE0E0
:10233000029B186841075D4C06D5072109022268F7
:102340008A43D96811432160000707D50720C002DE
:10235000216881431869C00008432060216808078C
:10236000820F6D487A441279520097440154725B8F
:1023700038042146083909680904490F884068E093
:102380008901019804D403B0F0BD49070198FAD53A
:10239000216803200190814311432160FFF7D8FD9C
:1023A00007466868334D03282BD002281ED0012829
:1023B0000AD120680C21014004298ED0FFF7C8FD06
:1023C000C01BA842F5D909E020680007800F00D1A2
:1023D00083E7FFF7BDFDC01BA842F5D9019803B004
:1023E000F0BDFFF7B5FDC01BA842F7D820680C214F
:1023F00001400829F5D170E7FFF7AAFDC01BA842EC
:10240000ECD820680C2101400C29F5D165E789053D
:102410000198B8D5BCE720460C380068C00612D534
:102420003F4816E08A02120F3C4B9A5C0902890F62
:10243000491C2368DB0309D420460C380068C00619
:1024400003D4384802E0374803E03548504302F0EF
:102450001DF921680906090F074A515CC840124955
:10246000086006480068FFF795FD03B0F0BDC04660
:102470000020024088130000684A00080400002081
:1024800009480068094909684905490F084A515C2B
:10249000C840704704480068044909688904490F26
:1024A000034A515CC84070470C0000200C100240E9
:1024B000784A000810B5844AD1680807830F164887
:1024C0007B441B795B009F440108070D0120000439
:1024D00051680904490F884010BD1068C00613D523
:1024E0000F4810BD8B021B0F0C4CE35C0902890FD7
:1024F000491CD468E40303D41068C00606D4094814
:10250000584302F0C3F810BD064810BD04485843B4
:1025100002F0BCF810BDC04600127A00804A0008E4
:1025200000093D000024F400F0B589B0002856D021
:10253000654EF1680C220A400692012105910904BA
:10254000F76804910F4007900078C00710D00698F4
:10255000082806D006980C2800D0D7E0002F00D11C
:10256000D4E03068800303D507984068002852D033
:1025700007980078800735D407980078C0064DD4B6
:1025800007980078000767D407990878400700D5B6
:102590009CE00878800600D51FE10798846A002C2B
:1025A0001AD006980C2800D068E1012C33D0F068CE
:1025B000049A0240079BD96A8A422CD10F218904D0
:1025C00001401A6B914226D1032189050840596BBD
:1025D0008842059800D055E2002009B0F0BD0120E6
:1025E00009B0F0BD079BD868810604D53168202268
:1025F0001143316090430699042906D006990C29AD
:1026000000D0A9E0002F00D0A6E0316800283AD120
:102610000422114037D0059809B0F0BD01204402D2
:102620000699002900D1ADE03168079AD26900020D
:10263000002A00D101E101433160FFF789FC054622
:102640003068204200D008E1FFF782FC401B0228DE
:10265000F6D9032009B0F0BD306D0799496900290A
:1026600000D1D9E0012108433065FFF771FC054630
:10267000306D800788D4FFF76BFC401B0228F7D928
:10268000032009B0F0BD1F21090272688A4319694D
:10269000090211437160316809229143014331609D
:1026A000F1680807820FF8485200C0467A449288C1
:1026B0005200974403002401D8013A0170680004D5
:1026C000410F04988840CEE100100240012211071A
:1026D000B06B0840029002D1B06B0843B063019127
:1026E00003921402EF4F3868C00523D438682043A2
:1026F0003860FFF72DFC0546386820421AD1FFF7F5
:1027000027FC411B03206429F6D9BBE130680799F7
:102710004968049A914209D005221204914200D0DE
:10272000CDE0059989040843306030680499084376
:102730003060D3E007988168306D039B5F02002909
:1027400000D12AE105221202914200D11FE1A142EB
:1027500000D036E1204339E13168002800D1D3E0D0
:102760000922914301433160FFF7F2FB05463068CF
:10277000400700D501E1FFF7EBFB411B03200229D5
:10278000F5D97FE13168214204D00799C969002950
:1027900000D177E10720400371688143079B586AA5
:1027A00001437160FF21090672688A43196A0906AC
:1027B00089187160400B04998140F0680006000F91
:1027C000B54A105CC140B5480160B5480068FFF7E4
:1027D000E1FB002800D055E1D2E6B068079989698D
:1027E000002900D1B3E001210843B060706B0843B9
:1027F00070634803AD490A6802430A60FFF7A8FB0B
:102800000546B068800700D5C7E6FFF7A1FB411B6E
:1028100003200229F5D935E1012188433065FFF70E
:1028200097FB0546306D800700D4ADE6FFF790FBBF
:10283000411B03200229F5D924E181433160FFF7D0
:1028400087FB05463068204200D199E6FFF780FB00
:10285000411B03200229F5D914E1072040037168C8
:102860008143079A506A08437060FF200006716830
:102870008143106A00064018706081E6012001065D
:1028800032688A4332604706FFF762FB0546022C36
:102890000AD13068384200D1C3E0FFF759FB411B31
:1028A00003200229F5D9EDE03068384200D193E6E3
:1028B000FFF74EFB411B03200229F5D9E2E0049A01
:1028C0009043306030681040089008980598800464
:1028D000326882433260002900D192E005984404B6
:1028E000FFF736FB05463068204200D040E6FFF790
:1028F0002FFB401B6428F6D9032009B0F0BD3068D7
:10290000C0067CD56248AEE0012081433160FFF70C
:102910001FFB05463068400700D42DE6FFF718FB83
:10292000411B03200229F5D9ACE08A02120F574B54
:102930009A5C0902890F491CF368049C234200D069
:102940008EE03068C00600D589E0524888E0012159
:102950008843B060480355490A6882430A60FFF71C
:10296000F7FA0546B068800700D416E6FFF7F0FADC
:10297000411B03200229F5D984E01F200002716861
:10298000814307980069000208437060F4E59902EA
:1029900008433065306D204318E0A043306598024D
:1029A000316D81433165FFF7D3FA05463E4C306DFA
:1029B00038421AD0FFF7CCFA411B0320A142F6D9C6
:1029C00060E0A04330659902306D88433065FFF7C1
:1029D000BFFA0546344C306D384206D1FFF7B8FADD
:1029E000411B0320A142F6D94CE002980028079928
:1029F00000D0CEE5B06B019A9043B063C9E525489D
:102A000031E005984404FFF7A3FA054630682042F8
:102A100000D1ADE5FFF79CFA411B03206429F5D9ED
:102A200030E0FD200004F1688143079B2C330DCB7F
:102A3000084310431843F0602748401C31680143A5
:102A40003160FFF785FA04463068384200D0C3E5AC
:102A5000FFF77EFA011B03200229F5D912E00C488A
:102A6000504301F013FEF1680906090F0A4A515C50
:102A7000C8400A4908600A480068FFF78BFA002836
:102A800000D179E509B0F0BD00127A00804A000853
:102A900000093D000024F400684A00080C000020F2
:102AA0000400002000700040881300002000014056
:102AB000401E010E01D0012070470749074A5060AF
:102AC000074803680B40032189075918016000205B
:102AD0009060072111607047FFFFFF0010E000E0E9
:102AE00020ED00E010B53822825C012A01D10220DD
:102AF00010BD0246383202235370006843687024C8
:102B0000A3430C681C4383684460DE4CA04207DC8E
:102B10000124A407A04209D0DD4CA04206D00AE05F
:102B2000D94CA04202D0D94CA04204D18024A34366
:102B3000496819438160002010700121517010BD57
:102B40003822825C012A01D10220704703463833C3
:102B500000221A700068016510467047B0B5002861
:102B600019D0054638356978002905D1002129702A
:102B7000044600F049F820460221697001680C689B
:102B8000C04B994209DC0122920791420BD0E14AE5
:102B9000914208D015E00120B0BDBB4A914202D05D
:102BA000BA4A91420DD170229443826822439942DD
:102BB0000ADC01239B0799420CD0D64B994209D0DD
:102BC00020E022469942F4DDAF4B994202D0AF4B50
:102BD000994217D103231B029A43036913438022AE
:102BE000934342691A430A60C268CA6240688862B5
:102BF00001204861A871A870E87028716871687038
:102C00000020B0BD1346EAE701218A070068904220
:102C100000D07047024802680A4302607047C0460D
:102C200038100240F0B53822825C012A01D102201E
:102C3000F0BD0246383202235370504E3346773B84
:102C40000468A0681840A0600D6800234F2D1FDCA9
:102C50001F2D36DD202D38D0302D36D0402D00D020
:102C600087E0206A256A0126B5432562A569F0261A
:102C7000B543CE6836012E43A6610A25A8434968AC
:102C800001432162A06847210143302081436AE06B
:102C90006F2D26DD01204703BD4257D0000385423A
:102CA00018461AD0702D64D1A06830404D688E68E7
:102CB000C9682E43090231430143A160A06877210E
:102CC00050E0002D01D0102D53D1A0687021884311
:102CD000054307202843A060184613700121517056
:102CE000F0BD502D1BD0602D43D11020C043256A6C
:102CF000054025620F252D03A669AE43CD682D033F
:102D00003543266AA561A025AE43496809013143D0
:102D10002162A16867250D430540A56024E0206A73
:102D2000256A0126B5432562A569F026B543CE681C
:102D300036012E43A6610A25A84349680143216252
:102D4000A06857210143202081430CE0A56835404D
:102D50004E688F68C9683743090239432943A16027
:102D60008003A1680143A1601846137001215170CE
:102D7000F0BD0120137001215170F0BDFF00FFFF75
:102D8000F0B581B000281FD0054638356A78002A92
:102D900007D100222A7004460E4600F07FF8204634
:102DA000314602226A7002689368354C1C40946078
:102DB0001668344CA2420ADC01239B079A420CD0CD
:102DC000544B9A4209D016E0012001B0F0BD2E4BC1
:102DD0009A4202D02D4B9A420DD170239E438368B4
:102DE0003343A2420ADC0124A407A2420CD0494C7E
:102DF000A24209D042E03346A242F4DDF94CA2429D
:102E000002D0F94CA24239D103242402A34304691D
:102E10001C4380239C43436923431360C368D362EC
:102E200040689062012050610B6894681C43966969
:102E3000136A94608C688F693F022743154C3C40AD
:102E4000154F3740CE683E432643CC6924023443B5
:102E50000E69360126430C6A240334439461AA2484
:102E6000A3434C681C434969090121431162A871BD
:102E7000A870E8706870002001B0F0BD1C46C8E77B
:102E8000F8BFFFFFFF0701400014014000080140A8
:102E9000000400400303FFFF0000FFFF70B586B091
:102EA0000025059504950395029501950068FA495A
:102EB000884201D006B070BD4948C168022631433E
:102EC000C160016801221143016001681140009155
:102ED00000990168042211430160006810400090CD
:102EE0000596049503950296802001900098052090
:102EF000000701AC2146FEF759FF0596049503959E
:102F000002964020019004482146FEF74FFF06B08C
:102F100070BDC0460004004000080050B0B53A2221
:102F2000845C03463A335D78042906D000290CD12D
:102F3000012C08D1022119701CE0012D03D10221BE
:102F40005970006813E00120B0BD0122012C21D18D
:102F5000012D1FD102221A705A7000290AD0006870
:102F6000016A012291430162016A11430162102149
:102F7000CA4304E000681021CA430F320121036AEA
:102F800013400362026A0A430262016801220A4393
:102F9000026000221046B0BD80B586B000210591C8
:102FA00004910391029101910122920700689042DD
:102FB00001D006B080BD0A48026802231A430260AD
:102FC0000068184000900593049103910293082033
:102FD00001900098034801A9FEF7E8FE06B080BD05
:102FE0002C1002400004005070B53823C35C012B44
:102FF00001D1022070BD034638330224E241032A86
:1030000000D994E07A4412795200974401651F4038
:103010000068026A0125AA430262026A456886695D
:1030200045607325AE430D68354385614D68456342
:10303000A2438C68144304628269082414438461A7
:1030400082690424A2438261C96868E001221402F3
:103050000068056AA5430562046A4568C66945605B
:103060007325AE430D683543C5614D68C563520293
:1030700094438A68120222430262C26908241443FC
:10308000C461C2690424A243C261C96822E001226A
:1030900014030068056AA5430562046A4568C669A9
:1030A000456073252D02AE430D682D023543C56181
:1030B0004D6805645503AC438D682D0325430562B7
:1030C000D402C5692543C5619202C4699443C461B1
:1030D000C96809021C3023E00068026A1024A24378
:1030E0000262026A44688569446073242402A5432D
:1030F0000C6824022C4384614C6884632024A2431E
:103100008C682401144304620122D402856925439A
:1031100085619202846994438461C9680902183008
:1031200002680A43026000200021197070BD01206E
:103130000021197070BD0000B0B5002819D00546F7
:1031400038356978002905D100212970044600F03E
:103150004DF820460221697001680C684B4B99427A
:1031600009DC0122920791420BD04B4A914208D0D0
:1031700015E00120B0BD464A914202D0454A914235
:103180000DD1702294438268224399420ADC0123C4
:103190009B0799420CD0404B994209D020E022462F
:1031A0009942F4DD3A4B994202D03A4B994217D1F9
:1031B00003231B029A43036913438022934342690A
:1031C0001A430A60C268CA62406888620120486186
:1031D000A871A870E8702871687168700020B0BD8F
:1031E0001346EAE700140140000801407047000060
:1031F00002463A3200290DD0042906D008290FD101
:103200003C23C35C012B0FD015E03B23C35C012B97
:1032100011D109E01378012B0DD1022313700FE0B7
:103220003D23C35C012B06D10223082905D00429C4
:1032300005D1537004E001207047937000E0D37013
:103240001F221140012213468B400068016A9943F6
:103250000162016A194301620C49884206DC910748
:10326000884209D00C49884206D00AE008498842C1
:1032700002D00849884204D1816807230B40062BFD
:1032800002D001681143016000207047FF07014030
:10329000001401400008014000040040B0B51F23A5
:1032A0000B40012214469C4003681D6AA5431D6221
:1032B0001C6A1C621C6A0E4D2C4209D03A30082947
:1032C0000CD004290DD000290ED102700020B0BD11
:1032D0001C6894431C603A300829F2D182700020A7
:1032E000B0BD42700020B0BDC2700020B0BDC0466D
:1032F000111100007047704780B5FEF70EFD80BDCC
:10330000F0B587B003460168CD690C6820200494AD
:10331000029004406242624101200690C7023E468C
:103320002F362E40203E701E864116438E6857D0A1
:1033300003938033019738460F3005950542049D6D
:1033400007D0E7482840012732463A40101800D0FD
:103350009BE0102428462040474247410398006ED6
:103360000128069A44D00598C006069F45D4002F30
:1033700046D00124A0050640724272410598C00261
:10338000069E039800D51646002E00D18CE08022C0
:103390002A4051425141059B1A06069A00D50A4619
:1033A000002A00D190E140210D406A426A415B064B
:1033B00000D50692069A002A00D009E1EFF31085A5
:1033C00084F31088026813688B43136085F31088B8
:1033D0000021C1660299C16700F0E2FA07B0F0BDB2
:1033E000996E002900D1F3E01846884707B0F0BD78
:1033F0003A460598C006069FB9D51746002FB8D1A2
:10340000039F3D4658350C628868400652D469884F
:1034100028886A88002A00D1DAE0884200D1D7E003
:103420000693EFF31083012282F3108809256D01C2
:103430003E68059139463768AF43376083F310889B
:10344000EFF3108382F310880D68AE689643AE6088
:1034500083F31088029B069D2B6000238B660B660E
:10346000EFF3108382F310880A681568A54315608E
:1034700083F3108802224A66059A801A82B20846AF
:103480001146FFF737FF07B0F0BD3802284046422B
:1034900046410598C00706985CD100285DD000978A
:1034A000059DA80761D469E022050A62FFF723FFA2
:1034B00007B0F0BD786F006841688AB2002A00D179
:1034C00086E01E462B889A4200D381E0698000681E
:1034D000800634D4EFF31081012080F31088824AF3
:1034E000203206963B681E6816401E6081F31088E5
:1034F000EFF3108180F310883A68936883439360F8
:1035000081F31088EFF3108180F310883A68936894
:103510004026B343936081F310880299069A1160A4
:1035200000213966EFF3108180F310883868026853
:10353000A243026081F31088786FFEF7F2FB02204D
:10354000786628886988401A81B23846FFF7D2FE2B
:1035500007B0F0BD30460028A1D10F62586838434B
:1035600058600097059DA80708D5002A06D00220BC
:1035700008625868042606435E60059D6807019F3F
:1035800007D5002A05D004200862586802260643A1
:103590005E6022435642564105980007069A009DF8
:1035A00000D53246002A04D1082008625A68024336
:1035B0005A60A806049D05406A426A41059E3E4243
:1035C000069D07D1002D08D058680028039D0DD115
:1035D00007B0F0BD1546002DF6D10F625868029A6B
:1035E0001043586058680028039DF1D002980640A7
:1035F00062426241002E00D006920698002809D14E
:10360000AA6E002A06D02C4628461D4690472B4617
:1036100025462168586828220240886840210840D1
:1036200080181E4606D12846FFF766FE002070600F
:1036300007B0F0BDEFF31080009F87F310880922D8
:1036400052012B681C6894431C6080F31088EFF3D0
:10365000108087F310882A689368BB43936080F3D7
:103660001088286E01280BD1EFF31080009A82F3A6
:1036700010882A6813681024A343136080F310880D
:103680000298306000202866A86628688068400696
:1036900021D5EFF31080009A82F310882A6893688E
:1036A0008B43936080F31088696F002913D00D4815
:1036B00088630846FEF756FB002800D188E7686F4C
:1036C000816B884707B0F0BDC16E002900D17FE74C
:1036D000884707B0F0BD2846FFF70EFE07B0F0BDE3
:1036E000200100047D3C0008DFFEFFFFB0B500288C
:1036F00017D00446C06F002805D17820002121543E
:10370000204600F02BF82420E0672068016801259E
:10371000A9430160204600F095FB002803D028460D
:10372000B0BD0120B0BD606A002802D0204600F084
:10373000D3F90920C00221684A6882434A60886838
:103740002A22904388600868012202430A602046CA
:1037500000F02CFA05462846B0BD0000F0B587B051
:1037600000240694059404940394029400689E49EE
:1037700088423AD05049884252D1012082032949D7
:103780008B6813438B600A6802430A600A68024030
:103790000192019A0A68022632430A6009683140A0
:1037A0000191042106910327059704940396800252
:1037B000029001980520000702AD2946FEF7F6FAAF
:1037C00006940597049403964020029016482946D3
:1037D000FEF7ECFA1B25284621462246FEF714FC8C
:1037E0002846FEF705FC07B0F0BD012041040D4A54
:1037F000D3680B43D3601168014311601168014025
:103800000191042006900320059004940220039067
:103810000C20029005200007019902A9FEF7C6FAC4
:1038200007B0F0BD2C10024000040050F0B581B08C
:103830008023C358202B12D1012400290CD0002A48
:103840000AD001231C038568A5420CD1CC070AD0FD
:103850000469002C07D11C46204601B0F0BD0224AB
:10386000204601B0F0BD0024046605680A4EB5424A
:103870000DD06D682D020AD5EFF3108583F3108803
:103880009B06066837681F43376085F3108800F091
:10389000EFFB204601B0F0BD0048004080B5006855
:1038A0000549884200D080BD044901224A6004488D
:1038B000FFF7BCFF80BDC046003801407C000020FF
:1038C00004020020F0B585B004930646C06F20289E
:1038D00010D1012000290BD0002A09D001200503B6
:1038E000B368AB4209D1CB0707D03369002B04D1B1
:1038F00005B0F0BD022005B0F0BD01913446503452
:10390000304684300021029101602120F067174683
:10391000FEF71EFB039067802780B068A84202D1A3
:103920003069002801D0019D0AE00025019802902D
:1039300006E02878316888626D1C6088401E6080CF
:103940006088002816D00498009080210027304617
:103950003A46039B00F0F6FB00281AD1002DE8D16F
:10396000029A10880D49084031688862921C0292C0
:103970003D46E2E704980090402100223046039B38
:1039800000F0E0FB2021F1670028B1D0032005B052
:10399000F0BD2020F067032005B0F0BDFF0100005E
:1039A0007047000010B5044645488460002C1AD0CA
:1039B0000D492160806800210C224B23DB0143600C
:1039C0008160C160016142618161C16101624162E6
:1039D000FFF78CFE002801D0FEF79FF9384901223D
:1039E0002046FFF723FF10BD00440040FEE7FEE73E
:1039F0007047000083B0F0B5A4B0044629A80EC0FB
:103A000029A82390EFF310800290EFF3108072B694
:103A1000239A03A82146FCF7F1FC0346C5B2284EC1
:103A20007088281801210F027488FF2808D82548BB
:103A3000001903A92A46FCF7EDFD7088441913E02C
:103A40007088204908186142CAB2009203AD294625
:103A50000193FCF7DFFD0098291801980019C4B202
:103A600018482246FCF7D6FD7480029880F310882F
:103A70007088C019B188401A134C2040012819DB06
:103A8000104DEFF31080EFF3108172B6B1884A1C2D
:103A9000D2B2B28080F310886918B0683B462C33EC
:103AA0000122FFF70FFF7088C019B188401A20402B
:103AB0000028E6DC24B0F0BC01BC03B00047C046DF
:103AC00070000020C4000020FF000080704780B517
:103AD000FEF742FA80BD7047B0B5416ACA070CD103
:103AE0008A0714D44A071CD40A0724D4CA062CD443
:103AF0008A0634D44A063CD44CE0012252040368BE
:103B00005C689443826A22435A608A07EAD501229C
:103B1000120403685C689443C26A22435A604A07ED
:103B2000E2D50122920403685C689443026B22434D
:103B30005A600A07DAD50122D20303685C6894430D
:103B4000426B22435A60CA06D2D50122120303688F
:103B50009C689443826B22439A608A06CAD50122EC
:103B6000520303689C689443C26B22439A604A06DE
:103B700010D501221305026854689C43056C2C4340
:103B800054609D4206D103235B0554689C43436CFB
:103B900023435360090607D50121C904026853680D
:103BA0008B43806C18435060B0BD0000F0B583B00B
:103BB0000446064678360025F560FEF7C9F9034647
:103BC00020680168090721D502952B48009001253E
:103BD0006905002220461F4600F0B4FA002812D0E2
:103BE000EFF3108085F3108821680A6880239A43D8
:103BF0000A6080F31088032020227C21029D6250FD
:103C0000357003B0F0BD20683B46029D0068400758
:103C100026D5194800900127B9050022204600F05A
:103C200091FA00281CD0EFF3108087F31088092147
:103C30004901226813688B43136080F31088EFF307
:103C4000108087F3108821688A68BA438A6080F3FD
:103C500010880320202280216250357003B0F0BD0F
:103C60002020E067B060256664212A46284662501D
:103C7000357003B0F0BDC046FFFFFF0180B5806A1C
:103C80000146523100220A8152214252FFF734FB91
:103C900080BD0000F0B581B0802141580268222922
:103CA00010D1014658318B88526A1A40436D1A80F0
:103CB0004A88521E4A809A1C42654A88002A07D0C8
:103CC00001B0F0BD906908210143916101B0F0BDE0
:103CD00003468033EFF31084012282F31088092514
:103CE0006D0106683768AF43376084F31088EFF3DF
:103CF000108482F310880568AE689643AE6084F342
:103D0000108820241C600023836643660468C74D26
:103D1000AC420DD0646824020AD5EFF3108482F31C
:103D20001088950606683768AF43376084F31088BB
:103D3000046E012C15D10366EFF3108382F3108813
:103D40000468256810229543256083F31088036872
:103D5000DC69E40600D51A620988FFF7CBFA01B0E6
:103D6000F0BDFFF79BFD01B0F0BDC046F0B581B0DE
:103D7000802141580268222911D1014658318B888F
:103D8000526A1A40436D1A704A88521E4A80426D28
:103D9000521C42654A88002A07D001B0F0BD9069E4
:103DA00008210143916101B0F0BD03468033EFF378
:103DB0001084012282F3108809256D010668376896
:103DC000AF43376084F31088EFF3108482F31088D8
:103DD0000568AE689643AE6084F3108820241C60AA
:103DE0000023836643660468904DAC420DD064683E
:103DF00024020AD5EFF3108482F310889506066832
:103E00003768AF43376084F31088046E012C15D1F6
:103E10000366EFF3108382F310880468256810228C
:103E20009543256083F310880368DC69E40600D5B8
:103E30001A620988FFF75EFA01B0F0BDFFF72EFDA8
:103E400001B0F0BDF0B581B0044601680868764A5B
:103E50000240A06823690343606918431043E26984
:103E600010430860032630034B688343E06818431F
:103E70004860A5696D4B994202D0206A284300E052
:103E800028460B252D028F68AF4307438F60684893
:103E9000814214DD0027674881421FD06648814275
:103EA0001CD06648814243D16648C06C8007000F31
:103EB00066A52F580125E803994213D13DE06048DB
:103EC000814205D0994233D15E48C06C000A01E0BE
:103ED0005C48C06C0C2505405B4847590125E80348
:103EE00099422AD0824212D1082F00D996E0C046CA
:103EF0007F443F797F00BF44043C469152919191A9
:103F00007300FEF7BDFA002800D069E085E0082FB5
:103F100000D983E07F443F797F00BF44042F3A7F7C
:103F2000457F7F7F7200FEF7ABFA002869D174E00D
:103F300010270125E8039942D4D1082F6ED8C04636
:103F40007F443F797F00BF44046909690F6969694B
:103F50003500FEF795FA00282CD15EE0394800685C
:103F6000C00626D53E4825E0FEF7A4FA002821D158
:103F700053E0FEF78FFA002832D14EE0FEF78AFABE
:103F800000283ED149E02F480068C00627D53448B4
:103F900026E02C480068C00632D5314831E0FEF7F3
:103FA00089FA00281CD138E0FEF784FA002828D1CD
:103FB00033E02A4862685643B0422FD31103884247
:103FC0002CD8010E56080002002380195941FCF735
:103FD0008DF925494118254A91421CD31EE01F48FE
:103FE000400061684A08101800F050FB0246103A81
:103FF0001C498A4212D201400007400F08430AE0E0
:10400000164861684A08101800F040FB0146103954
:10401000144A914202D22168C86000250020A0669F
:10402000E066284601B0F0BDF369FFEF00480040AC
:10403000FF4B0040004C0040005000400038014061
:1040400000440040001002408C4A000801000000BB
:104050000400000002000000080000000024F4003A
:1040600000093D00F0FF000000FDFFFF00FD0F0014
:1040700070B55823C252416500218166034658330A
:104080005A80846802468032002C12D001252E0707
:10409000B44208D02D03AC4214D10469002C0ED1D7
:1040A000254C9C800FE00469002C05D03F249C80A7
:1040B00009E00469002C02D07F249C8003E0FF24E7
:1040C0009C8000E09980516022211160EFF3108202
:1040D000012181F3108803689C680C439C6082F383
:1040E000108802690B0384689C4204D1002A14D012
:1040F000124A826603E0114B8366002A0FD0EFF369
:10410000108281F3108809214901006803680B437C
:10411000036082F31088002070BD094A8266EFF3C5
:10412000108281F310880068016820230B4303602C
:1041300082F31088002070BDFF0100006D3D000873
:10414000953C0008F0B587B0069315460F46036806
:10415000D9693940C91B4A424A410026AA4220D1A6
:104160000C9C002C20D0611C23D1D9693940C91B7B
:104170004A424A41AA4214D1D9693940C91B4A422C
:104180004A41AA420DD1D9693940C91B4A424A4124
:10419000AA4206D1D9693940C91B4A424A41AA42BA
:1041A000E3D0304607B0F0BDFDF7D2FE032007B0E4
:1041B000F0BD029601467831039101210191C902B7
:1041C0000491059006E0C9693940CA1B514251412A
:1041D000A9424ED1FDF7BCFE0699411A0323A14224
:1041E00044D8059801680A685207ECD5CA691207D5
:1041F00042D4CA692646049C22423446E3D01F4674
:1042000004980862EFF31082012181F310880923DA
:104210005B010598046825689D43256082F310883A
:10422000EFF3108281F31088059803689C688C4333
:104230009C60059882F31088026E012A0BD1EFF37F
:10424000108281F3108801680B681024A3430B606F
:10425000059882F310882021039B99600022026652
:1042600082661A70D960384607B0F0BD184607B0AC
:10427000F0BD029807B0F0BD08250D62EFF3108184
:10428000019880F3108809225201059B1B681C6865
:1042900094431C6081F31088EFF3108180F3108841
:1042A000059A1268936883439360059B81F3108895
:1042B000196E01290CD1EFF31081012282F31088CD
:1042C0001A6813681024A3431360059B81F31088B8
:1042D0002021039A91600021196699661170D560BA
:1042E00007B0F0BD80B5DE48FFF70AF880BDC046D4
:1042F000A2B0FDF73BFE14AD38212846FCF7E9F9E2
:1043000000241294119410940F940E9404A8282160
:10431000FCF7DFF903200390C002C7490A68824313
:1043200001271497F802101808601E94052630041F
:1043300015902846FEF7F8F8002803D0EFF3108018
:1043400072B6FEE7039D01960297129411941094A1
:1043500002270F970F200E900EA82146FDF78CFF25
:10436000002803D0EFF3108072B6FEE7089407949C
:10437000049504A8FDF764FE002803D0EFF3108035
:1043800072B6FEE718941794169415941494AB48DB
:1043900001680422114301600168114004910499ED
:1043A0000168802203921143016001681140049169
:1043B00004990168029E3143016001683140049113
:1043C00004990168394301600068384004900498FA
:1043D000019807076021384601912246FDF7AFFD9D
:1043E000974803992246FDF7AAFD16942120000460
:1043F00015907003149014AD91482946FDF7D6FC32
:104400001794169415962020149038462946FDF7E7
:10441000CDFC1796169415964020149000973846B8
:104420002946FDF7C3FC1796169415960398149029
:1044300083482946FDF7BAFC824D2846FFF7B2FAB9
:104440000C27E1204002804929606860AC60EC6084
:104450002C616F61AC61EC612C626C622846FFF7E5
:1044600045F9002803D0EFF3108072B6FEE70397FA
:10447000764D77480721B207AA60E9602C61686130
:10448000AC61EC611794169415940F940E942F461A
:1044900008373846FEF762FB002803D0EFF31080A0
:1044A00072B6FEE73003149014A93846FEF7BAFB43
:1044B000002803D0EFF3108072B6FEE73846FEF70F
:1044C0003BFE002803D0EFF3108072B6FEE70EA982
:1044D0003846FEF707FB002803D0EFF3108072B6D2
:1044E000FEE70794069405940198049004A9042219
:1044F0003846FEF779FD002803D0EFF3108072B63E
:10450000FEE73846FEF748FD52485349534A14C067
:10451000046041608460C4601C941B9402991A91E9
:104520001994189417941691159414910594049461
:1045300014A90838FEF724FC002803D0EFF31080FC
:1045400072B6FEE7434804A9FEF7CCFA002803D070
:10455000EFF3108072B6FEE73E480421FEF7F0FA52
:10456000002803D0EFF3108072B6FEE73C483D49C7
:10457000046244624B22D20116C004604460039975
:104580008160C46004610C38FFF7B0F8002803D0E4
:10459000EFF3108072B6FEE72E483C21FEF7BEFC1A
:1045A000002803D0EFF3108072B6FEE72C480126F6
:1045B00029463246FFF73AF940210391009D2846EB
:1045C0003246FDF7BCFC214EB0682749096881637B
:1045D00004213846FEF70CFEB068816B2348FFF7D4
:1045E00009FA284635460399FDF7A4FC0146204800
:1045F000FFF700FA80211248FDF79CFC01461D4898
:10460000FFF7F8F91C48FFF7F5F91CA600E06C600D
:1046100068680028FCD029783046FFF7EBF9287845
:104620003128F4D1802101220548FDF788FC0421BE
:104630003846FEF733FEEAE7007000402C100240D7
:10464000000800508C020020004400407C00002044
:10465000E7030000C4010020FFFF00000004004049
:10466000040200200038014008000020D24A00085F
:104670009C4A0008B64A0008E24A00085265636591
:10468000697665643A2025630D0A000043088B4271
:104690001AD3002203098B4279D3030A8B425ED3DB
:1046A000030B8B4242D3030C8B4227D30902FF2218
:1046B00012BA030C8B4202D31212090203D0030B6D
:1046C0008B4233D31AE0D3E0411A8041401C70473B
:1046D00003460B4371D443088B42F5D300220309F0
:1046E0008B4254D3030A8B4239D3030B8B421DD325
:1046F000030C8B4202D394466EE0090AC30B8B4233
:1047000001D3CB03C01A5241830B8B4201D38B03DD
:10471000C01A5241430B8B4201D34B03C01A524182
:10472000030B8B4201D30B03C01A5241C30A8B42C5
:1047300001D3CB02C01A5241830A8B4201D38B02B0
:10474000C01A5241430A8B4201D34B02C01A524154
:10475000030A8B4201D30B02C01A5241CDD2C309C6
:104760008B4201D3CB01C01A524183098B4201D342
:104770008B01C01A524143098B4201D34B01C01A2D
:10478000524103098B4201D30B01C01A5241C308A5
:104790008B4201D3CB00C01A524183088B4201D314
:1047A0008B00C01A524143088B4201D34B00C01A00
:1047B0005241411A524110007047CA0F00D049427D
:1047C000031000D34042534000229C4603098B4211
:1047D0002DD3030A8B4212D38901FC2212BA030A99
:1047E0008B420CD3890192118B4208D3890192111B
:1047F0008B4204D3890137D0921100E08909C309A3
:104800008B4201D3CB01C01A524183098B4201D3A1
:104810008B01C01A524143098B4201D34B01C01A8C
:10482000524103098B4201D30B01C01A5241C30804
:104830008B4201D3CB00C01A524183088B4201D373
:104840008B00C01A5241D9D243088B4201D34B008E
:10485000C01A5241411A00D20146524110466346E5
:104860005B1000D34042704763465B1000D3404268
:1048700001B50021004201D0C9430846C046C046E8
:1048800002BDF8B5040C8BB2264682B25E431046D8
:1048900058430D0C370C3604002180191646794117
:1048A0006E43370C36048019264679416E438919C8
:1048B000F8BD00004900CA020243100000D00420E5
:1048C0004A0D01D001221043044A490D914201D101
:1048D00002210843012800D105207047FF0700008E
:1048E00030380A2801D201207047002070470000AC
:1048F00010B500290AD00878002807D00548784468
:10490000FDF7ACF9002801D0002010BD0248784422
:1049100010BD000006020000FE01000010B50029D5
:104920000AD00878002807D005487844FDF796F9A2
:10493000002801D0002010BD0248784410BD0000BE
:10494000F6010000EE01000003B4024878448446FA
:1049500003BC6047D1C5FFFF03B4024878448446D6
:1049600003BC604739C8FFFF0400000800000000D6
:104970000000000200010000100000000000000024
:104980000000000030313233343536373839414297
:1049900043444546403058003031323334353637A1
:1049A0003839616263646566403078003031323393
:1049B0003435363738396162636465667870003043
:1049C000313233343536373839414243444546581D
:1049D0005000000002400000000000A000000000A5
:1049E00005400000000000C8000000000C4000006E
:1049F0000000409C00000000194000000020BCBEE8
:104A00000000000034400000BFC91B8E00000004FD
:104A1000B5400000504BCFD06607E2CF0100000048
:104A20006C4100003E8251AADFEEA7340100000075
:104A3000D9420000DCB5A0E23A301F97FFFFFFFF2C
:104A4000B4450000FD25A0C8E9A3C14FFFFFFFFF4B
:104A5000FF3F00000000008000000000FF3F00005A
:104A600000000080000000000000000000000000C6
:104A70000102030406070809000000000102030404
:104A8000030406080C10182030000000000000008D
:104A90000400000002000000080000004D6F746F69
:104AA0007220466F7277617264202D205041363A31
:104AB0002025640D0A004272616B652050696E20EA
:104AC00028504337292053746174653A2025640DBA
:104AD0000A00466F72776172642050574D3A202564
:104AE000750D0A00304C0008000000201000000086
:104AF0001C010008404C00081000002008090000BC
:104B00003C0100081C00000043000000F8FFFFFF0C
:104B10000C0000000E0000000F0000002E0000003E
:104B20001001000043000000F8FFFFFF004040407C
:104B30004040404040404141414141404040404070
:104B4000404040404040404040404040400502021C
:104B500002020202020202020202020202202020DB
:104B60002020202020202002020202020202909037
:104B70009090909010101010101010101010101035
:104B80001010101010101010020202020202888889
:104B90008888888808080808080808080808080895
:104BA000080808080808080802020202400000007D
:104BB00000000000000000000000000000000000F5
:104BC00000000000000000000000000000000000E5
:104BD00000000000000000000000000000000000D5
:104BE00000000000000000000000000000000000C5
:104BF00000000000000000000000000000000000B5
:104C000000000000000000000000000000000000A4
:104C10000000000000000000000000000000000094
:104C20000000000000000000000000000000000084
:104C30000100000004000000E80300000000200064
:04000005080000C12E
:00000001FF
