:020000040800F2
:10000000C8070020810100089D1B00089B1B0008F9
:1000100000000000000000000000000000000000E0
:10002000000000000000000000000000A11B00080C
:1000300000000000000000009F1B0008A31B000838
:100040009301000893010008930100089301000840
:100050009301000893010008930100089301000830
:100060009301000893010008930100089301000820
:100070009301000893010008930100089301000810
:10008000AD1B000893010008930100080000000068
:1000900093010008930100089301000893010008F0
:1000A000930100089301000893010008CD23000884
:1000B00093010008930100089301000893010008D0
:1000C00000F002F800F04CF812A030C808382418EC
:1000D0002D18AC4201D100F043F80FCCA246AB463C
:1000E0000CA730CF2D1B083F3F197C427F1E544484
:1000F0002D090426F441641EAC4201D300F030F80F
:100100000126334200D0FB1A3343984754465D46DC
:10011000DFE70000E826000008270000103A02D3BD
:1001200078C878C1FAD8520701D330C830C101D598
:1001300004680C6070470000704700000023002432
:1001400000250026103A01D378C1FBD8520700D30E
:1001500030C100D50B6070471FB51FBD10B510BD75
:1001600000F0D5F81146FFF7F7FF02F035F900F07F
:10017000EDF803B4FFF7F2FF03BC00F0F3F8000062
:100180000748804707480047FEE7FEE7FEE7FEE72F
:10019000FEE7FEE704480549054A064B70470000A4
:1001A000AB1B0008C1000008C8010020C8070020E0
:1001B000C8030020C8030020FEB5044610460D46C3
:1001C000184373D0A6468C460020A41A01469D41D0
:1001D00067D36646002701243D46B61A9D4102D3E7
:1001E00013463A462124654676462F04360C3E4394
:1001F0002D0CB61A9D4104D3150C1B042B4312047D
:100200001034654676462F06360A3E432D0AB61A46
:100210009D4104D3150E1B022B4312020834654680
:1002200076462F0736093E432D09B61A9D4104D361
:10023000150F1B012B431201241D65467646AF079F
:10024000B6083E43AD08B61A9D4104D3950F9B00F6
:100250002B439200A41C65467646EF0776083E4382
:100260006D08B61A9D411AD392185B41641C16E0C2
:100270000018764665464941B71A9D4101910090A4
:1002800009D36046B11A98418E4684460098019978
:100290000025401C6941DD0752082A435B08641EA3
:1002A000E6D57246634603B0F0BDFFE7204628431B
:1002B00007D00020C0430146C046C04622462B4618
:1002C000F1E700200146F7E701E004C0091F042917
:1002D000FBD28B0701D50280801CC90700D00270B9
:1002E000704700290BD0C30702D00270401C491E82
:1002F000022904D3830702D50280801C891EE3E70C
:100300000022EEE70022DFE770477047704775462E
:1003100000F024F8AE46050069465346C008C00008
:10032000854618B020B5FFF735FF60BCB6460026FD
:100330000027C0C5C0C5C0C5C0C5C0C5C0C5C0C5F3
:10034000C0C5403D490849008D46704710B5044678
:10035000C046C0462046FFF70CFF10BD004870475E
:100360001000002001491820ABBEFEE72600020065
:10037000704710B5014624314A78022A14D1026828
:1003800013680E24A343136013680124A34313606E
:10039000026C406C1C2303402046984050604C7017
:1003A000002000220A7010BD0422C2630120002236
:1003B0000A7010BDB0B5014624314A78022A18D11E
:1003C000026813680E24A343136013680125AB432E
:1003D0001360026C436C1C241C402B46A3405360EA
:1003E00000240C704D70816B002900D08847204696
:1003F000B0BD0421C1630120B0BD0000F0B58AB0DA
:1004000007900B68002B00D1B3E00E465A480799BD
:10041000814201D0062000E005200B210907079A40
:1004200052180A21CA410192052A00D30190079867
:1004300020300090002215461746029619460BE020
:1004400021434E4801607F1C31680846F840121D68
:10045000AD1C002800D18CE001231846B8400140B3
:10046000F1D0059306920391324603263146A94006
:100470000495CD4351680C463440631E012B08950A
:10048000099110D807998B682B40D668049DAE401F
:100490001E438E60099AD306DB0FBB404E6886432D
:1004A0001E434E6006E0032C049D03D13446029E99
:1004B000069A1DE00799C868089A1040029EB36822
:1004C000AB400343CB60022C069A11D11C20104094
:1004D0000F218140FB089B00009AD4588C4331695E
:1004E00081402143D150069A70680324099004404A
:1004F000AC4007990868089B184020430860099899
:100500008003800F059B9ED0494908681843086006
:100510000C2010400F21814003233C469C43184B84
:10052000E3588B43019981401943154821501348E2
:1005300081687068C30202D5039C214301E0039CDB
:10054000A1430E4B9960D968830201D5214300E095
:10055000A1430A4BD9605968830301D5214300E0C8
:10056000A143064B59601968C00300D568E7A14351
:1005700067E70AB0F0BDC046001C0050000401400F
:1005800008000140002A02D018228150704728221A
:1005900081507047054800687047C0461D48007884
:1005A00002490A68101808607047C046C40100205C
:1005B00010B50848016840220A4302600024204622
:1005C00000F00AF8002801D0012010BD00F026F844
:1005D000204610BD0020024070B504467D20C000BA
:1005E0000C4E317801F0F6FF01460B48006801F02F
:1005F000F1FF00F07FFD0125032C08D8002806D16B
:100600000025E84321462A4600F020F87460284679
:1006100070BDC046000000200800002004480168AA
:10062000012211430160110742680A43426070478A
:1006300034100240002805D41F21084001218140C8
:10064000014801607047C04600E100E0002805D481
:100650000322034693430A4A9A1803E00C220240FD
:10066000064BD2188007C00E8901C9B28140FF2312
:1006700083401068984308431060704714ED00E011
:1006800000E400E0F0B589B0066801252F02EA0217
:1006900011462031874B0E427CD0059208902907E5
:1006A000143B18680840049002D118680843186089
:1006B00001930291804C2068384211D12068384360
:1006C0002060FFF767FF06462068384208D1FFF731
:1006D00061FF801B6428F7D90325284609B0F0BDC7
:1006E0000326340573484C38069001682140089B66
:1006F00058680246039422400096340491420AD17D
:1007000002462240A242069E0DD19A68039B1A40DF
:10071000914205D107E001462140A142069E02D147
:1007200031688903D9D4634B59680794214021D09B
:10073000079A1040814203D00898007880060AD4B6
:1007400008988068079A1040814213D00898006882
:10075000059908420ED05868E9045A680A435A605D
:100760005A688A435A600146079A91435960384251
:1007700000D08CE00898066805990E42079C59D174
:10078000B1066DD40499002904D1019C2168029A14
:1007900091432160F1070DD1B10713D4710719D42A
:1007A000310720D43E4227D171062ED400253106D0
:1007B00093D535E0196803229143C2680A431A6051
:1007C000B107EBD519680C22914302690A431A60FC
:1007D0007107E5D5032189021A688A4341691143EB
:1007E00019603107DED5032109031A688A4381693C
:1007F000114319603E42D7D0032109041A688A4385
:10080000C169114319607106D0D5012189061A68A2
:100810008A43416A114319600025310600D45CE720
:1008200003218A0419689143006A08431860284626
:1008300009B0F0BD826811462140A1420BD1039856
:10084000024003231B05069D2C689C43194B089806
:1008500014432C60079C5A680A435A60B10691D52C
:10086000426811462140A1420AD103980240032365
:100870001B05069D2C689C430E4B089814432C6066
:100880005A680A435A600499002983D17DE7FFF72B
:1008900081FE0546884C074B5868800500D569E7FE
:1008A000FFF778FE401BA042F5D9009D284609B00D
:1008B000F0BDC0464C10024000700040F0B583B05F
:1008C000002846D00E4602907A4800680121019126
:1008D0000840B04216D2774908680125A843304342
:1008E0000860754CFFF756FE0746724800682840BE
:1008F000B04207D0FFF74EFEC01BA042F5D903203F
:1009000003B0F0BD029D28688107794C05D52168A8
:10091000F0229143AA680A432260C0071CD16548AF
:10092000006801273840B04224D962490868B843BA
:100930000860614CFFF72EFE05465E480068C00760
:1009400018D0FFF727FE401BA042F6D9032003B0C2
:10095000F0BD012003B0F0BD6A6821460C3909687A
:10096000012A34D0032A2DD0022A72D1890301989A
:100970002BD52FE0029B186841075D4C06D5072157
:10098000090222688A43D96811432160000707D50C
:100990000720C002216881431869C0000843206015
:1009A00021680807820F6D487A44127952009744F3
:1009B0000154725B38042146083909680904490F5B
:1009C000884068E08901019804D403B0F0BD49076C
:1009D0000198FAD5216803200190814311432160D9
:1009E000FFF7D8FD07466868334D03282BD002284F
:1009F0001ED001280AD120680C21014004298ED084
:100A0000FFF7C8FDC01BA842F5D909E02068000720
:100A1000800F00D183E7FFF7BDFDC01BA842F5D9C9
:100A2000019803B0F0BDFFF7B5FDC01BA842F7D891
:100A300020680C2101400829F5D170E7FFF7AAFDD5
:100A4000C01BA842ECD820680C2101400C29F5D12C
:100A500065E789050198B8D5BCE720460C380068E1
:100A6000C00612D53F4816E08A02120F3C4B9A5C32
:100A70000902890F491C2368DB0309D420460C387E
:100A80000068C00603D4384802E0374803E0354820
:100A9000504301F09FFD21680906090F074A515C88
:100AA000C8401249086006480068FFF795FD03B08A
:100AB000F0BDC0460020024088130000CA2700088D
:100AC0000400002009480068094909684905490FE0
:100AD000084A515CC84070470448006804490968E6
:100AE0008904490F034A515CC84070470800002040
:100AF0000C100240DA27000810B5844AD1680807B4
:100B0000830F16487B441B795B009F440108070D47
:100B10000120000451680904490F884010BD106885
:100B2000C00613D50F4810BD8B021B0F0C4CE35CA5
:100B30000902890F491CD468E40303D41068C00675
:100B400006D40948584301F045FD10BD064810BDC4
:100B50000448584301F03EFD10BDC04600127A0023
:100B6000E227000800093D000024F400F0B589B038
:100B7000002856D0654EF1680C220A4006920121E9
:100B800005910904F76804910F4007900078C007A9
:100B900010D00698082806D006980C2800D0D7E078
:100BA000002F00D1D4E03068800303D50798406857
:100BB000002852D007980078800735D4079800782D
:100BC000C0064DD407980078000767D407990878C5
:100BD000400700D59CE00878800600D51FE1079803
:100BE000846A002C1AD006980C2800D068E1012CE9
:100BF00033D0F068049A0240079BD96A8A422CD10C
:100C00000F21890401401A6B914226D103218905E5
:100C10000840596B8842059800D055E2002009B081
:100C2000F0BD012009B0F0BD079BD868810604D54E
:100C3000316820221143316090430699042906D07F
:100C400006990C2900D0A9E0002F00D0A6E0316859
:100C500000283AD10422114037D0059809B0F0BDE0
:100C6000012044020699002900D1ADE03168079ABD
:100C7000D2690002002A00D101E101433160FFF78F
:100C800089FC05463068204200D008E1FFF782FC6D
:100C9000401B0228F6D9032009B0F0BD306D07993A
:100CA0004969002900D1D9E0012108433065FFF7E7
:100CB00071FC0546306D800788D4FFF76BFC401B44
:100CC0000228F7D9032009B0F0BD1F21090272687C
:100CD0008A431969090211437160316809229143FD
:100CE00001433160F1680807820FF8485200C0469E
:100CF0007A4492885200974403002401D8013A01B3
:100D000070680004410F04988840CEE10010024052
:100D100001221107B06B0840029002D1B06B08436A
:100D2000B063019103921402EF4F3868C00523D4D9
:100D3000386820433860FFF72DFC054638682042AC
:100D40001AD1FFF727FC411B03206429F6D9BBE128
:100D5000306807994968049A914209D00522120423
:100D6000914200D0CDE00599890408433060306895
:100D7000049908433060D3E007988168306D039B85
:100D80005F02002900D12AE105221202914200D11E
:100D90001FE1A14200D036E1204339E1316800284B
:100DA00000D1D3E00922914301433160FFF7F2FB08
:100DB00005463068400700D501E1FFF7EBFB411B1A
:100DC00003200229F5D97FE13168214204D0079937
:100DD000C969002900D177E1072040037168814388
:100DE000079B586A01437160FF21090672688A43B4
:100DF000196A090689187160400B04998140F068EE
:100E00000006000FB54A105CC140B5480160B54806
:100E10000068FFF7E1FB002800D055E1D2E6B0689A
:100E200007998969002900D1B3E001210843B06026
:100E3000706B084370634803AD490A6802430A6057
:100E4000FFF7A8FB0546B068800700D5C7E6FFF7A7
:100E5000A1FB411B03200229F5D935E1012188437B
:100E60003065FFF797FB0546306D800700D4ADE68F
:100E7000FFF790FB411B03200229F5D924E18143B0
:100E80003160FFF787FB05463068204200D199E6C4
:100E9000FFF780FB411B03200229F5D914E107204D
:100EA000400371688143079A506A08437060FF20CD
:100EB000000671688143106A00064018706081E680
:100EC0000120010632688A4332604706FFF762FB61
:100ED0000546022C0AD13068384200D1C3E0FFF742
:100EE00059FB411B03200229F5D9EDE03068384257
:100EF00000D193E6FFF74EFB411B03200229F5D9F1
:100F0000E2E0049A904330603068104008900898FE
:100F100005988004326882433260002900D192E053
:100F200005984404FFF736FB05463068204200D0A0
:100F300040E6FFF72FFB401B6428F6D9032009B0D9
:100F4000F0BD3068C0067CD56248AEE00120814328
:100F50003160FFF71FFB05463068400700D42DE6DF
:100F6000FFF718FB411B03200229F5D9ACE08A02E8
:100F7000120F574B9A5C0902890F491CF368049CB5
:100F8000234200D08EE03068C00600D589E0524888
:100F900088E001218843B060480355490A688243CC
:100FA0000A60FFF7F7FA0546B068800700D416E636
:100FB000FFF7F0FA411B03200229F5D984E01F2036
:100FC000000271688143079800690002084370605D
:100FD000F4E5990208433065306D204318E0A043E2
:100FE00030659802316D81433165FFF7D3FA0546CC
:100FF0003E4C306D38421AD0FFF7CCFA411B03202B
:10100000A142F6D960E0A04330659902306D884373
:101010003065FFF7BFFA0546344C306D384206D1D3
:10102000FFF7B8FA411B0320A142F6D94CE0029821
:101030000028079900D0CEE5B06B019A9043B063C9
:10104000C9E5254831E005984404FFF7A3FA0546B1
:101050003068204200D1ADE5FFF79CFA411B032028
:101060006429F5D930E0FD200004F1688143079B35
:101070002C330DCB084310431843F0602748401C25
:10108000316801433160FFF785FA04463068384221
:1010900000D0C3E5FFF77EFA011B03200229F5D932
:1010A00012E00C48504301F095FAF1680906090F67
:1010B0000A4A515CC8400A4908600A480068FFF7BC
:1010C0008BFA002800D179E509B0F0BD00127A0052
:1010D000E227000800093D000024F400CA270008A8
:1010E0000800002004000020007000408813000069
:1010F00020000140401E010E01D001207047074929
:10110000074A5060074803680B40032189075918B4
:10111000016000209060072111607047FFFFFF0011
:1011200010E000E020ED00E010B53822825C012ADA
:1011300001D1022010BD02463832022353700068EC
:1011400043687024A3430C681C4383684460E74CE5
:10115000A04207DC0124A407A04209D0F14CA04220
:1011600006D00AE0E24CA04202D0E24CA04204D1F8
:101170008024A34349681943816000201070012135
:10118000517010BD7047B0B504464020C54320687B
:101190000169890717D5C168890714D529463E31E9
:1011A0000161012121768069800703D02046FFF785
:1011B000E9FF05E0204600F099F8204600F0B6F976
:1011C0000020207620680169490718D5C1684907C1
:1011D00015D529463C3101610221217680698005BF
:1011E000800F03D02046FFF7CDFF05E0204600F03A
:1011F0007DF8204600F09AF90020207620680169E9
:10120000090717D5C168090714D529463831016186
:1012100004212176C069800703D02046FFF7B2FF82
:1012200005E0204600F062F8204600F07FF900203B
:10123000207620680169C90618D5C168C90615D588
:1012400029463031016108212176C0698005800F6F
:1012500003D02046FFF796FF05E0204600F046F851
:10126000204600F063F90020207620680169C90754
:1012700009D0C168C90706D029463F31016120461F
:1012800000F0ACF920680169490606D5C168490635
:1012900003D50561204600F0A2F9B0BD80B586B047
:1012A0000021059104910391029101910068CA4ABD
:1012B000904201D006B080BD0B48026801231A435A
:1012C000026000681840009002200590049103918C
:1012D00002908020019005200007009901A9FFF7E6
:1012E0008DF806B080BDC0462C100240704700004B
:1012F00070B53823C35C012B01D1022070BD0346B9
:1013000038330224E241032A00D994E07A44127966
:101310005200974401651F400068026A0125AA43F4
:101320000262026A4568866945607325AE430D68AE
:10133000354385614D684563A2438C68144304625C
:10134000826908241443846182690424A24382616F
:10135000C96868E0012214020068056AA5430562B5
:10136000046A4568C66945607325AE430D68354318
:10137000C5614D68C563520294438A6812022243D4
:101380000262C26908241443C461C2690424A243EE
:10139000C261C96822E0012214030068056AA543FE
:1013A0000562046A4568C669456073252D02AE432F
:1013B0000D682D023543C5614D6805645503AC4386
:1013C0008D682D0325430562D402C5692543C56197
:1013D0009202C4699443C461C96809021C3023E0C5
:1013E0000068026A1024A2430262026A44688569A6
:1013F000446073242402A5430C6824022C438461B6
:101400004C6884632024A2438C6824011443046242
:101410000122D4028569254385619202846994433F
:101420008461C9680902183002680A43026000201A
:101430000021197070BD01200021197070BD0000DD
:10144000B0B5002819D0054638356978002905D18E
:1014500000212970044600F04FF8204602216970EF
:1014600001680C68594B994209DC012292079142AC
:101470000BD0594A914208D015E00120B0BD544A22
:10148000914202D0534A91420DD170229443826816
:10149000224399420ADC01239B0799420CD04E4B10
:1014A000994209D020E022469942F4DD484B994206
:1014B00002D0484B994217D103231B029A43036978
:1014C00013438022934342691A430A60C268CA6286
:1014D0004068886201204861A871A870E87028718E
:1014E000687168700020B0BD1346EAE7FF0701404D
:1014F000001401400008014010B5006836498842D8
:1015000000D010BD0848016802220A43026010247E
:10151000002120460A46FFF799F82046FFF78AF88F
:1015200010BDC04600040040381002407047000063
:1015300002463A3200290DD0042906D008290FD1DD
:101540003C23C35C012B0FD015E03B23C35C012B74
:1015500011D109E01378012B0DD1022313700FE094
:101560003D23C35C012B06D10223082905D00429A1
:1015700005D1537004E001207047937000E0D370F0
:101580001F221140012213468B400068016A9943D3
:101590000162016A194301620C49884206DC910725
:1015A000884209D00C49884206D00AE0084988429E
:1015B00002D00849884204D1816807230B40062BDA
:1015C00002D001681143016000207047FF0701400D
:1015D00000140140000801400004004070477047BB
:1015E0007047704770470000F0B587B00346016848
:1015F000CD690C682020049402900440624262414C
:1016000001200690C7023E462F362E40203E701E17
:10161000864116438E6857D003938033019738462E
:101620000F3005950542049D07D0E7482840012763
:1016300032463A40101800D09BE010242846204043
:10164000474247410398006E0128069A44D0059806
:10165000C006069F45D4002F46D00124A0050640B1
:10166000724272410598C002069E039800D5164644
:10167000002E00D18CE080222A4051425141059B2E
:101680001A06069A00D50A46002A00D190E14021A8
:101690000D406A426A415B0600D50692069A002A0E
:1016A00000D009E1EFF3108584F310880268136815
:1016B0008B43136085F310880021C1660299C167CE
:1016C00000F06AFA07B0F0BD996E002900D1F3E08E
:1016D0001846884707B0F0BD3A460598C006069FF1
:1016E000B9D51746002FB8D1039F3D4658350C6237
:1016F0008868400652D4698828886A88002A00D100
:10170000DAE0884200D1D7E00693EFF3108301229C
:1017100082F3108809256D013E68059139463768C6
:10172000AF43376083F31088EFF3108382F31088A0
:101730000D68AE689643AE6083F31088029B069DE9
:101740002B6000238B660B66EFF3108382F3108807
:101750000A681568A543156083F3108802224A665B
:10176000059A801A82B208461146FFF739FF07B082
:10177000F0BD38022840464246410598C007069809
:101780005CD100285DD00097059DA80761D469E071
:1017900022050A62FFF725FF07B0F0BD786F0068E9
:1017A00041688AB2002A00D186E01E462B889A4200
:1017B00000D381E069800068800634D4EFF31081A3
:1017C000012080F31088824A203206963B681E680A
:1017D00016401E6081F31088EFF3108180F31088AB
:1017E0003A6893688343936081F31088EFF3108124
:1017F00080F310883A6893684026B343936081F37E
:1018000010880299069A116000213966EFF3108161
:1018100080F3108838680268A243026081F3108860
:10182000786FFEF7A6FD0220786628886988401A3E
:1018300081B23846FFF7D4FE07B0F0BD304600282D
:10184000A1D10F625868384358600097059DA807DA
:1018500008D5002A06D002200862586804260643EC
:101860005E60059D6807019F07D5002A05D004200A
:1018700008625868022606435E602243564256417B
:1018800005980007069A009D00D53246002A04D12B
:10189000082008625A6802435A60A806049D054061
:1018A0006A426A41059E3E42069D07D1002D08D03E
:1018B00058680028039D0DD107B0F0BD1546002DD6
:1018C000F6D10F625868029A104358605868002891
:1018D000039DF1D00298064062426241002E00D082
:1018E00006920698002809D1AA6E002A06D02C4636
:1018F00028461D4690472B462546216858682822D1
:10190000024088684021084080181E4606D12846BB
:10191000FFF768FE0020706007B0F0BDEFF31080A5
:10192000009F87F31088092252012B681C6894439A
:101930001C6080F31088EFF3108087F310882A680A
:101940009368BB43936080F31088286E01280BD105
:10195000EFF31080009A82F310882A68136810242D
:10196000A343136080F3108802983060002028663B
:10197000A86628688068400621D5EFF31080009A99
:1019800082F310882A6893688B43936080F31088F1
:10199000696F002913D00D4888630846FEF70AFDD9
:1019A000002800D188E7686F816B884707B0F0BDD9
:1019B000C16E002900D17FE7884707B0F0BD2846F7
:1019C000FFF710FE07B0F0BD20010004611D000804
:1019D000DFFEFFFFB0B5002817D00446C06F002817
:1019E00005D1782000212154204600F02BF8242036
:1019F000E067206801680125A9430160204600F0E6
:101A000095FA002803D02846B0BD0120B0BD606A19
:101A1000002802D0204600F0D1F80920C002216839
:101A20004A6882434A6088682A229043886008682E
:101A3000012202430A60204600F02AF905462846A2
:101A4000B0BD0000B0B586B00024059404940394A2
:101A50000294019400682449884228D04B49884266
:101A600040D101208103214A93680B4393601168A0
:101A70000143116011680140009104200590039416
:101A8000022002900320049040020190009805205B
:101A9000000701A9FEF7B2FC1B2528462146224675
:101AA000FEF7D4FD2846FEF7C5FD06B0B0BD012007
:101AB00041040E4AD3680B43D3601168014311609F
:101AC00011680140009104200590032004900394C4
:101AD000022002900C20019005200007009901A926
:101AE000FEF78CFC06B0B0BD004400402C10024054
:101AF000F0B581B08023C358202B12D101240029D6
:101B00000CD0002A0AD001231C038568A5420CD101
:101B1000CC070AD00469002C07D11C46204601B02E
:101B2000F0BD0224204601B0F0BD00240466056823
:101B3000C74EB5420DD06D682D020AD5EFF3108562
:101B400083F310889B06066837681F43376085F368
:101B5000108800F001FB204601B0F0BD80B50068A0
:101B60000A49884200D080BD09480178312906D150
:101B70004068642181634B21816332218163054880
:101B800003490122FFF7B4FF80BDC0460038014081
:101B900070000020B40000207047FEE7FEE77047A9
:101BA000704780B5FEF7FAFC80BD704780B50248EB
:101BB000FFF7E9FA80BDC04674000020B0B5416A65
:101BC000CA070CD18A0714D44A071CD40A0724D4A4
:101BD000CA062CD48A0634D44A063CD44CE00122EE
:101BE000520403685C689443826A22435A608A07FD
:101BF000EAD50122120403685C689443C26A224356
:101C00005A604A07E2D50122920403685C68944353
:101C1000026B22435A600A07DAD50122D203036815
:101C20005C689443426B22435A60CA06D2D50122B3
:101C3000120303689C689443826B22439A608A066D
:101C4000CAD50122520303689C689443C26B2243A5
:101C50009A604A0610D501221305026854689C4315
:101C6000056C2C4354609D4206D103235B055468E8
:101C70009C43436C23435360090607D50121C904E3
:101C8000026853688B43806C18435060B0BD0000FD
:101C9000F0B583B00446064678360025F560FEF7B9
:101CA00079FC034620680168090721D502952B4875
:101CB000009001256905002220461F4600F0B6FA73
:101CC000002812D0EFF3108085F3108821680A688D
:101CD00080239A430A6080F31088032020227C210D
:101CE000029D6250357003B0F0BD20683B46029DF6
:101CF0000068400726D5194800900127B905002241
:101D0000204600F093FA00281CD0EFF3108087F3F0
:101D1000108809214901226813688B43136080F3FE
:101D20001088EFF3108087F3108821688A68BA431F
:101D30008A6080F310880320202280216250357051
:101D400003B0F0BD2020E067B060256664212A461C
:101D500028466250357003B0F0BDC046FFFFFF015A
:101D600080B5806A0146523100220A8152214252D6
:101D7000FFF738FC80BD0000F0B581B080214158EC
:101D80000268222910D1014658318B88526A1A40C4
:101D9000436D1A804A88521E4A809A1C42654A88BE
:101DA000002A07D001B0F0BD90690821014391617C
:101DB00001B0F0BD03468033EFF31084012282F3BB
:101DC000108809256D0106683768AF43376084F3D2
:101DD0001088EFF3108482F310880568AE6896438C
:101DE000AE6084F3108820241C6000238366436661
:101DF0000468C84DAC420DD0646824020AD5EFF3E4
:101E0000108482F31088950606683768AF43376000
:101E100084F31088046E012C15D10366EFF3108350
:101E200082F310880468256810229543256083F3A7
:101E300010880368DC69E40600D51A620988FFF798
:101E4000CFFB01B0F0BDFFF789FE01B0F0BDC04689
:101E500000480040F0B581B0802141580268222935
:101E600011D1014658318B88526A1A40436D1A705D
:101E70004A88521E4A80426D521C42654A88002A96
:101E800007D001B0F0BD906908210143916101B014
:101E9000F0BD03468033EFF31084012282F31088F3
:101EA00009256D0106683768AF43376084F31088F1
:101EB000EFF3108482F310880568AE689643AE6035
:101EC00084F3108820241C60002383664366046822
:101ED000904DAC420DD0646824020AD5EFF3108413
:101EE00082F31088950606683768AF43376084F33D
:101EF0001088046E012C15D10366EFF3108382F372
:101F000010880468256810229543256083F31088A3
:101F10000368DC69E40600D51A620988FFF760FBF4
:101F200001B0F0BDFFF71AFE01B0F0BDF0B581B011
:101F3000044601680868764A0240A06823690343A2
:101F4000606918431043E2691043086003263003B8
:101F50004B688343E06818434860A5696D4B99421C
:101F600002D0206A284300E028460B252D028F6806
:101F7000AF4307438F606848814214DD00276748FC
:101F800081421FD0664881421CD06648814243D1BD
:101F90006648C06C8007000F66A52F580125E8032E
:101FA000994213D13DE06048814205D0994233D136
:101FB0005E48C06C000A01E05C48C06C0C2505401E
:101FC0005B4847590125E80399422AD0824212D141
:101FD000082F00D996E0C0467F443F797F00BF4478
:101FE000043C4691529191917300FEF76BFD0028DD
:101FF00000D069E085E0082F00D983E07F443F7975
:102000007F00BF44042F3A7F457F7F7F7200FEF739
:1020100059FD002869D174E010270125E803994291
:10202000D4D1082F6ED8C0467F443F797F00BF448B
:10203000046909690F6969693500FEF743FD0028E5
:102040002CD15EE039480068C00626D53E4825E020
:10205000FEF752FD002821D153E0FEF73DFD002898
:1020600032D14EE0FEF738FD00283ED149E02F483E
:102070000068C00627D5344826E02C480068C00612
:1020800032D5314831E0FEF737FD00281CD138E069
:10209000FEF732FD002828D133E02A486268564313
:1020A000B0422FD3110388422CD8010E56080002EB
:1020B000002380195941FEF77FF825494118254A28
:1020C00091421CD31EE01F48400061684A08101866
:1020D00000F080FA0246103A1C498A4212D20140AE
:1020E0000007400F08430AE0164861684A081018C4
:1020F00000F070FA01461039144A914202D2216868
:10210000C86000250020A066E066284601B0F0BD4A
:10211000F369FFEF00480040FF4B0040004C0040D7
:1021200000500040003801400044004000100240D0
:10213000EC2700080100000004000000020000007D
:10214000080000000024F40000093D00F0FF00003A
:1021500000FDFFFF00FD0F0070B55823C25241651E
:1021600000218166034658335A80846802468032D3
:10217000002C12D001252E07B44208D02D03AC420A
:1021800014D10469002C0ED1254C9C800FE0046909
:10219000002C05D03F249C8009E00469002C02D06B
:1021A0007F249C8003E0FF249C8000E099805160A4
:1021B00022211160EFF31082012181F3108803685E
:1021C0009C680C439C6082F3108802690B0384684E
:1021D0009C4204D1002A14D0124A826603E0114BBB
:1021E0008366002A0FD0EFF3108281F31088092153
:1021F0004901006803680B43036082F310880020E4
:1022000070BD094A8266EFF3108281F3108800687E
:10221000016820230B43036082F31088002070BD07
:10222000FF010000551E0008791D0008F0B587B0B9
:10223000069315460F460368D9693940C91B4A42BF
:102240004A410026AA4220D10C9C002C20D0611CBF
:1022500023D1D9693940C91B4A424A41AA4214D103
:10226000D9693940C91B4A424A41AA420DD1D969AC
:102270003940C91B4A424A41AA4206D1D96939406C
:10228000C91B4A424A41AA42E3D0304607B0F0BDDA
:10229000FEF780F9032007B0F0BD029601467831C1
:1022A000039101210191C9020491059006E0C969D9
:1022B0003940CA1B51425141A9424ED1FEF76AF939
:1022C0000699411A0323A14244D8059801680A6877
:1022D0005207ECD5CA69120742D4CA692646049C43
:1022E00022423446E3D01F4604980862EFF310827E
:1022F000012181F3108809235B0105980468256892
:102300009D43256082F31088EFF3108281F31088DB
:10231000059803689C688C439C60059882F310883C
:10232000026E012A0BD1EFF3108281F3108801684D
:102330000B681024A3430B60059882F310882021BA
:10234000039B99600022026682661A70D960384643
:1023500007B0F0BD184607B0F0BD029807B0F0BD59
:1023600008250D62EFF31081019880F3108809228F
:102370005201059B1B681C6894431C6081F3108804
:10238000EFF3108180F31088059A126893688343F5
:102390009360059B81F31088196E01290CD1EFF32E
:1023A0001081012282F310881A6813681024A34355
:1023B0001360059B81F310882021039A916000210E
:1023C000196699661170D56007B0F0BD80B57F4879
:1023D000FFF70AF980BDC046A0B0FEF7E9F812ACDD
:1023E00038212046FDF78EFF0027119710970F9791
:1023F0000E970D9702A82821FDF784FF0320019076
:10240000C0026A490A68824301261996F002101830
:1024100008601C97052568031B901A9710201290DE
:102420002046FEF7A3FB002803D0EFF3108072B61E
:10243000FEE7019C0E970F200D900F9710971197B4
:102440000DA83946FEF73AFA002803D0EFF31080C2
:1024500072B6FEE706970597029402A8FEF712F9F6
:10246000002803D0EFF3108072B6FEE71697159799
:102470001497139712974E48016804221143016084
:1024800001681140029102990168802211430160A4
:1024900001681140029102990168314301600068AE
:1024A00030400290029828070190202529463A469C
:1024B000FEF768F81497212000041390700312901F
:1024C0003C483C4612AF3946FDF798FF15941494EA
:1024D0001396129501983946FDF790FF36480C2760
:1024E0004B21CE01354942C0046044608460C7601E
:1024F000046144618461C4610838FFF76BFA002805
:1025000003D0EFF3108072B6FEE72D4D2D484F211A
:102510002D4A6A60A960EC6028616C61AC6103942B
:102520000294281D0190FEF78BFF002803D0EFF3E3
:10253000108072B6FEE702A90198FEF7F5FD0028AB
:1025400003D0EFF3108072B6FEE715941494139441
:102550006020129012A904220198FEF7C9FE0028FB
:1025600003D0EFF3108072B6FEE70198FEF796FEF7
:102570001648174942C0046044608460C760046123
:1025800044618461C4610838FFF724FA002803D04D
:10259000EFF3108072B6FEE704210198FEF7C8FF42
:1025A0000A4801222946FFF7A3FAFEE7007000401F
:1025B0002C100240000800503C0100200044004064
:1025C00070000020E703000000040040B400002079
:1025D0000038014043088B421AD3002203098B4282
:1025E00079D3030A8B425ED3030B8B4242D3030C95
:1025F0008B4227D30902FF2212BA030C8B4202D36B
:102600001212090203D0030B8B4233D31AE0D3E03A
:10261000411A8041401C704703460B4371D4430864
:102620008B42F5D3002203098B4254D3030A8B4219
:1026300039D3030B8B421DD3030C8B4202D3944638
:102640006EE0090AC30B8B4201D3CB03C01A52417F
:10265000830B8B4201D38B03C01A5241430B8B4235
:1026600001D34B03C01A5241030B8B4201D30B031E
:10267000C01A5241C30A8B4201D3CB02C01A524145
:10268000830A8B4201D38B02C01A5241430A8B4208
:1026900001D34B02C01A5241030A8B4201D30B02F1
:1026A000C01A5241CDD2C3098B4201D3CB01C01A0B
:1026B000524183098B4201D38B01C01A5241430915
:1026C0008B4201D34B01C01A524103098B4201D303
:1026D0000B01C01A5241C3088B4201D3CB00C01A70
:1026E000524183088B4201D38B00C01A52414308E8
:1026F0008B4201D34B00C01A5241411A5241100083
:102700007047CA0F00D04942031000D340425340E3
:1027100000229C4603098B422DD3030A8B4212D31D
:102720008901FC2212BA030A8B420CD3890192114F
:102730008B4208D3890192118B4204D3890137D08F
:10274000921100E08909C3098B4201D3CB01C01A61
:10275000524183098B4201D38B01C01A5241430974
:102760008B4201D34B01C01A524103098B4201D362
:102770000B01C01A5241C3088B4201D3CB00C01ACF
:10278000524183088B4201D38B00C01A5241D9D2E7
:1027900043088B4201D34B00C01A5241411A00D268
:1027A00001465241104663465B1000D340427047D9
:1027B00063465B1000D3404201B50021004201D0C6
:1027C000C9430846C046C04602BD000000000000E4
:1027D00000000102030406070809000000000102CE
:1027E0000304030406080C10182030000000000049
:1027F000040000000200000008000000202800087B
:1028000000000020100000001C0100083028000813
:1028100010000020B80700003C0100080000000084
:102820000100000004000000000020000000000083
:04000005080000C12E
:00000001FF
